{
  "contractName": "MimoExchange",
  "abi": [
    {
      "anonymous": false,
      "inputs": [
        {
          "indexed": true,
          "internalType": "address",
          "name": "provider",
          "type": "address"
        },
        {
          "indexed": true,
          "internalType": "uint256",
          "name": "iotx_amount",
          "type": "uint256"
        },
        {
          "indexed": true,
          "internalType": "uint256",
          "name": "token_amount",
          "type": "uint256"
        }
      ],
      "name": "AddLiquidity",
      "type": "event"
    },
    {
      "anonymous": false,
      "inputs": [
        {
          "indexed": true,
          "internalType": "address",
          "name": "owner",
          "type": "address"
        },
        {
          "indexed": true,
          "internalType": "address",
          "name": "spender",
          "type": "address"
        },
        {
          "indexed": false,
          "internalType": "uint256",
          "name": "value",
          "type": "uint256"
        }
      ],
      "name": "Approval",
      "type": "event"
    },
    {
      "anonymous": false,
      "inputs": [
        {
          "indexed": true,
          "internalType": "address",
          "name": "buyer",
          "type": "address"
        },
        {
          "indexed": true,
          "internalType": "uint256",
          "name": "tokens_sold",
          "type": "uint256"
        },
        {
          "indexed": true,
          "internalType": "uint256",
          "name": "iotx_bought",
          "type": "uint256"
        }
      ],
      "name": "IotxPurchase",
      "type": "event"
    },
    {
      "anonymous": false,
      "inputs": [
        {
          "indexed": true,
          "internalType": "address",
          "name": "provider",
          "type": "address"
        },
        {
          "indexed": true,
          "internalType": "uint256",
          "name": "iotx_amount",
          "type": "uint256"
        },
        {
          "indexed": true,
          "internalType": "uint256",
          "name": "token_amount",
          "type": "uint256"
        }
      ],
      "name": "RemoveLiquidity",
      "type": "event"
    },
    {
      "anonymous": false,
      "inputs": [
        {
          "indexed": true,
          "internalType": "address",
          "name": "buyer",
          "type": "address"
        },
        {
          "indexed": true,
          "internalType": "uint256",
          "name": "iotx_sold",
          "type": "uint256"
        },
        {
          "indexed": true,
          "internalType": "uint256",
          "name": "tokens_bought",
          "type": "uint256"
        }
      ],
      "name": "TokenPurchase",
      "type": "event"
    },
    {
      "anonymous": false,
      "inputs": [
        {
          "indexed": true,
          "internalType": "address",
          "name": "from",
          "type": "address"
        },
        {
          "indexed": true,
          "internalType": "address",
          "name": "to",
          "type": "address"
        },
        {
          "indexed": false,
          "internalType": "uint256",
          "name": "value",
          "type": "uint256"
        }
      ],
      "name": "Transfer",
      "type": "event"
    },
    {
      "payable": true,
      "stateMutability": "payable",
      "type": "fallback"
    },
    {
      "constant": true,
      "inputs": [
        {
          "internalType": "address",
          "name": "owner",
          "type": "address"
        },
        {
          "internalType": "address",
          "name": "spender",
          "type": "address"
        }
      ],
      "name": "allowance",
      "outputs": [
        {
          "internalType": "uint256",
          "name": "",
          "type": "uint256"
        }
      ],
      "payable": false,
      "stateMutability": "view",
      "type": "function"
    },
    {
      "constant": false,
      "inputs": [
        {
          "internalType": "address",
          "name": "spender",
          "type": "address"
        },
        {
          "internalType": "uint256",
          "name": "value",
          "type": "uint256"
        }
      ],
      "name": "approve",
      "outputs": [
        {
          "internalType": "bool",
          "name": "",
          "type": "bool"
        }
      ],
      "payable": false,
      "stateMutability": "nonpayable",
      "type": "function"
    },
    {
      "constant": true,
      "inputs": [
        {
          "internalType": "address",
          "name": "owner",
          "type": "address"
        }
      ],
      "name": "balanceOf",
      "outputs": [
        {
          "internalType": "uint256",
          "name": "",
          "type": "uint256"
        }
      ],
      "payable": false,
      "stateMutability": "view",
      "type": "function"
    },
    {
      "constant": true,
      "inputs": [],
      "name": "decimals",
      "outputs": [
        {
          "internalType": "uint256",
          "name": "",
          "type": "uint256"
        }
      ],
      "payable": false,
      "stateMutability": "view",
      "type": "function"
    },
    {
      "constant": false,
      "inputs": [
        {
          "internalType": "address",
          "name": "spender",
          "type": "address"
        },
        {
          "internalType": "uint256",
          "name": "subtractedValue",
          "type": "uint256"
        }
      ],
      "name": "decreaseAllowance",
      "outputs": [
        {
          "internalType": "bool",
          "name": "",
          "type": "bool"
        }
      ],
      "payable": false,
      "stateMutability": "nonpayable",
      "type": "function"
    },
    {
      "constant": false,
      "inputs": [
        {
          "internalType": "address",
          "name": "spender",
          "type": "address"
        },
        {
          "internalType": "uint256",
          "name": "addedValue",
          "type": "uint256"
        }
      ],
      "name": "increaseAllowance",
      "outputs": [
        {
          "internalType": "bool",
          "name": "",
          "type": "bool"
        }
      ],
      "payable": false,
      "stateMutability": "nonpayable",
      "type": "function"
    },
    {
      "constant": true,
      "inputs": [],
      "name": "name",
      "outputs": [
        {
          "internalType": "bytes32",
          "name": "",
          "type": "bytes32"
        }
      ],
      "payable": false,
      "stateMutability": "view",
      "type": "function"
    },
    {
      "constant": true,
      "inputs": [],
      "name": "symbol",
      "outputs": [
        {
          "internalType": "bytes32",
          "name": "",
          "type": "bytes32"
        }
      ],
      "payable": false,
      "stateMutability": "view",
      "type": "function"
    },
    {
      "constant": true,
      "inputs": [],
      "name": "totalSupply",
      "outputs": [
        {
          "internalType": "uint256",
          "name": "",
          "type": "uint256"
        }
      ],
      "payable": false,
      "stateMutability": "view",
      "type": "function"
    },
    {
      "constant": false,
      "inputs": [
        {
          "internalType": "address",
          "name": "to",
          "type": "address"
        },
        {
          "internalType": "uint256",
          "name": "value",
          "type": "uint256"
        }
      ],
      "name": "transfer",
      "outputs": [
        {
          "internalType": "bool",
          "name": "",
          "type": "bool"
        }
      ],
      "payable": false,
      "stateMutability": "nonpayable",
      "type": "function"
    },
    {
      "constant": false,
      "inputs": [
        {
          "internalType": "address",
          "name": "from",
          "type": "address"
        },
        {
          "internalType": "address",
          "name": "to",
          "type": "address"
        },
        {
          "internalType": "uint256",
          "name": "value",
          "type": "uint256"
        }
      ],
      "name": "transferFrom",
      "outputs": [
        {
          "internalType": "bool",
          "name": "",
          "type": "bool"
        }
      ],
      "payable": false,
      "stateMutability": "nonpayable",
      "type": "function"
    },
    {
      "constant": false,
      "inputs": [
        {
          "internalType": "address",
          "name": "token_addr",
          "type": "address"
        }
      ],
      "name": "setup",
      "outputs": [],
      "payable": false,
      "stateMutability": "nonpayable",
      "type": "function"
    },
    {
      "constant": true,
      "inputs": [
        {
          "internalType": "uint256",
          "name": "input_amount",
          "type": "uint256"
        },
        {
          "internalType": "uint256",
          "name": "input_reserve",
          "type": "uint256"
        },
        {
          "internalType": "uint256",
          "name": "output_reserve",
          "type": "uint256"
        }
      ],
      "name": "getInputPrice",
      "outputs": [
        {
          "internalType": "uint256",
          "name": "",
          "type": "uint256"
        }
      ],
      "payable": false,
      "stateMutability": "pure",
      "type": "function"
    },
    {
      "constant": true,
      "inputs": [
        {
          "internalType": "uint256",
          "name": "output_amount",
          "type": "uint256"
        },
        {
          "internalType": "uint256",
          "name": "input_reserve",
          "type": "uint256"
        },
        {
          "internalType": "uint256",
          "name": "output_reserve",
          "type": "uint256"
        }
      ],
      "name": "getOutputPrice",
      "outputs": [
        {
          "internalType": "uint256",
          "name": "",
          "type": "uint256"
        }
      ],
      "payable": false,
      "stateMutability": "pure",
      "type": "function"
    },
    {
      "constant": false,
      "inputs": [
        {
          "internalType": "uint256",
          "name": "min_tokens",
          "type": "uint256"
        },
        {
          "internalType": "uint256",
          "name": "deadline",
          "type": "uint256"
        }
      ],
      "name": "iotxToTokenSwapInput",
      "outputs": [
        {
          "internalType": "uint256",
          "name": "",
          "type": "uint256"
        }
      ],
      "payable": true,
      "stateMutability": "payable",
      "type": "function"
    },
    {
      "constant": false,
      "inputs": [
        {
          "internalType": "uint256",
          "name": "min_tokens",
          "type": "uint256"
        },
        {
          "internalType": "uint256",
          "name": "deadline",
          "type": "uint256"
        },
        {
          "internalType": "address",
          "name": "recipient",
          "type": "address"
        }
      ],
      "name": "iotxToTokenTransferInput",
      "outputs": [
        {
          "internalType": "uint256",
          "name": "",
          "type": "uint256"
        }
      ],
      "payable": true,
      "stateMutability": "payable",
      "type": "function"
    },
    {
      "constant": false,
      "inputs": [
        {
          "internalType": "uint256",
          "name": "tokens_bought",
          "type": "uint256"
        },
        {
          "internalType": "uint256",
          "name": "deadline",
          "type": "uint256"
        }
      ],
      "name": "iotxToTokenSwapOutput",
      "outputs": [
        {
          "internalType": "uint256",
          "name": "",
          "type": "uint256"
        }
      ],
      "payable": true,
      "stateMutability": "payable",
      "type": "function"
    },
    {
      "constant": false,
      "inputs": [
        {
          "internalType": "uint256",
          "name": "tokens_bought",
          "type": "uint256"
        },
        {
          "internalType": "uint256",
          "name": "deadline",
          "type": "uint256"
        },
        {
          "internalType": "address",
          "name": "recipient",
          "type": "address"
        }
      ],
      "name": "iotxToTokenTransferOutput",
      "outputs": [
        {
          "internalType": "uint256",
          "name": "",
          "type": "uint256"
        }
      ],
      "payable": true,
      "stateMutability": "payable",
      "type": "function"
    },
    {
      "constant": false,
      "inputs": [
        {
          "internalType": "uint256",
          "name": "tokens_sold",
          "type": "uint256"
        },
        {
          "internalType": "uint256",
          "name": "min_iotx",
          "type": "uint256"
        },
        {
          "internalType": "uint256",
          "name": "deadline",
          "type": "uint256"
        }
      ],
      "name": "tokenToIotxSwapInput",
      "outputs": [
        {
          "internalType": "uint256",
          "name": "",
          "type": "uint256"
        }
      ],
      "payable": false,
      "stateMutability": "nonpayable",
      "type": "function"
    },
    {
      "constant": false,
      "inputs": [
        {
          "internalType": "uint256",
          "name": "tokens_sold",
          "type": "uint256"
        },
        {
          "internalType": "uint256",
          "name": "min_iotx",
          "type": "uint256"
        },
        {
          "internalType": "uint256",
          "name": "deadline",
          "type": "uint256"
        },
        {
          "internalType": "address payable",
          "name": "recipient",
          "type": "address"
        }
      ],
      "name": "tokenToIotxTransferInput",
      "outputs": [
        {
          "internalType": "uint256",
          "name": "",
          "type": "uint256"
        }
      ],
      "payable": false,
      "stateMutability": "nonpayable",
      "type": "function"
    },
    {
      "constant": false,
      "inputs": [
        {
          "internalType": "uint256",
          "name": "iotx_bought",
          "type": "uint256"
        },
        {
          "internalType": "uint256",
          "name": "max_tokens",
          "type": "uint256"
        },
        {
          "internalType": "uint256",
          "name": "deadline",
          "type": "uint256"
        }
      ],
      "name": "tokenToIotxSwapOutput",
      "outputs": [
        {
          "internalType": "uint256",
          "name": "",
          "type": "uint256"
        }
      ],
      "payable": false,
      "stateMutability": "nonpayable",
      "type": "function"
    },
    {
      "constant": false,
      "inputs": [
        {
          "internalType": "uint256",
          "name": "iotx_bought",
          "type": "uint256"
        },
        {
          "internalType": "uint256",
          "name": "max_tokens",
          "type": "uint256"
        },
        {
          "internalType": "uint256",
          "name": "deadline",
          "type": "uint256"
        },
        {
          "internalType": "address payable",
          "name": "recipient",
          "type": "address"
        }
      ],
      "name": "tokenToIotxTransferOutput",
      "outputs": [
        {
          "internalType": "uint256",
          "name": "",
          "type": "uint256"
        }
      ],
      "payable": false,
      "stateMutability": "nonpayable",
      "type": "function"
    },
    {
      "constant": false,
      "inputs": [
        {
          "internalType": "uint256",
          "name": "tokens_sold",
          "type": "uint256"
        },
        {
          "internalType": "uint256",
          "name": "min_tokens_bought",
          "type": "uint256"
        },
        {
          "internalType": "uint256",
          "name": "min_iotx_bought",
          "type": "uint256"
        },
        {
          "internalType": "uint256",
          "name": "deadline",
          "type": "uint256"
        },
        {
          "internalType": "address",
          "name": "token_addr",
          "type": "address"
        }
      ],
      "name": "tokenToTokenSwapInput",
      "outputs": [
        {
          "internalType": "uint256",
          "name": "",
          "type": "uint256"
        }
      ],
      "payable": false,
      "stateMutability": "nonpayable",
      "type": "function"
    },
    {
      "constant": false,
      "inputs": [
        {
          "internalType": "uint256",
          "name": "tokens_sold",
          "type": "uint256"
        },
        {
          "internalType": "uint256",
          "name": "min_tokens_bought",
          "type": "uint256"
        },
        {
          "internalType": "uint256",
          "name": "min_iotx_bought",
          "type": "uint256"
        },
        {
          "internalType": "uint256",
          "name": "deadline",
          "type": "uint256"
        },
        {
          "internalType": "address",
          "name": "recipient",
          "type": "address"
        },
        {
          "internalType": "address",
          "name": "token_addr",
          "type": "address"
        }
      ],
      "name": "tokenToTokenTransferInput",
      "outputs": [
        {
          "internalType": "uint256",
          "name": "",
          "type": "uint256"
        }
      ],
      "payable": false,
      "stateMutability": "nonpayable",
      "type": "function"
    },
    {
      "constant": false,
      "inputs": [
        {
          "internalType": "uint256",
          "name": "tokens_bought",
          "type": "uint256"
        },
        {
          "internalType": "uint256",
          "name": "max_tokens_sold",
          "type": "uint256"
        },
        {
          "internalType": "uint256",
          "name": "max_iotx_sold",
          "type": "uint256"
        },
        {
          "internalType": "uint256",
          "name": "deadline",
          "type": "uint256"
        },
        {
          "internalType": "address",
          "name": "token_addr",
          "type": "address"
        }
      ],
      "name": "tokenToTokenSwapOutput",
      "outputs": [
        {
          "internalType": "uint256",
          "name": "",
          "type": "uint256"
        }
      ],
      "payable": false,
      "stateMutability": "nonpayable",
      "type": "function"
    },
    {
      "constant": false,
      "inputs": [
        {
          "internalType": "uint256",
          "name": "tokens_bought",
          "type": "uint256"
        },
        {
          "internalType": "uint256",
          "name": "max_tokens_sold",
          "type": "uint256"
        },
        {
          "internalType": "uint256",
          "name": "max_iotx_sold",
          "type": "uint256"
        },
        {
          "internalType": "uint256",
          "name": "deadline",
          "type": "uint256"
        },
        {
          "internalType": "address",
          "name": "recipient",
          "type": "address"
        },
        {
          "internalType": "address",
          "name": "token_addr",
          "type": "address"
        }
      ],
      "name": "tokenToTokenTransferOutput",
      "outputs": [
        {
          "internalType": "uint256",
          "name": "",
          "type": "uint256"
        }
      ],
      "payable": false,
      "stateMutability": "nonpayable",
      "type": "function"
    },
    {
      "constant": false,
      "inputs": [
        {
          "internalType": "uint256",
          "name": "tokens_sold",
          "type": "uint256"
        },
        {
          "internalType": "uint256",
          "name": "min_tokens_bought",
          "type": "uint256"
        },
        {
          "internalType": "uint256",
          "name": "min_iotx_bought",
          "type": "uint256"
        },
        {
          "internalType": "uint256",
          "name": "deadline",
          "type": "uint256"
        },
        {
          "internalType": "address payable",
          "name": "exchange_addr",
          "type": "address"
        }
      ],
      "name": "tokenToExchangeSwapInput",
      "outputs": [
        {
          "internalType": "uint256",
          "name": "",
          "type": "uint256"
        }
      ],
      "payable": false,
      "stateMutability": "nonpayable",
      "type": "function"
    },
    {
      "constant": false,
      "inputs": [
        {
          "internalType": "uint256",
          "name": "tokens_sold",
          "type": "uint256"
        },
        {
          "internalType": "uint256",
          "name": "min_tokens_bought",
          "type": "uint256"
        },
        {
          "internalType": "uint256",
          "name": "min_iotx_bought",
          "type": "uint256"
        },
        {
          "internalType": "uint256",
          "name": "deadline",
          "type": "uint256"
        },
        {
          "internalType": "address",
          "name": "recipient",
          "type": "address"
        },
        {
          "internalType": "address payable",
          "name": "exchange_addr",
          "type": "address"
        }
      ],
      "name": "tokenToExchangeTransferInput",
      "outputs": [
        {
          "internalType": "uint256",
          "name": "",
          "type": "uint256"
        }
      ],
      "payable": false,
      "stateMutability": "nonpayable",
      "type": "function"
    },
    {
      "constant": false,
      "inputs": [
        {
          "internalType": "uint256",
          "name": "tokens_bought",
          "type": "uint256"
        },
        {
          "internalType": "uint256",
          "name": "max_tokens_sold",
          "type": "uint256"
        },
        {
          "internalType": "uint256",
          "name": "max_iotx_sold",
          "type": "uint256"
        },
        {
          "internalType": "uint256",
          "name": "deadline",
          "type": "uint256"
        },
        {
          "internalType": "address payable",
          "name": "exchange_addr",
          "type": "address"
        }
      ],
      "name": "tokenToExchangeSwapOutput",
      "outputs": [
        {
          "internalType": "uint256",
          "name": "",
          "type": "uint256"
        }
      ],
      "payable": false,
      "stateMutability": "nonpayable",
      "type": "function"
    },
    {
      "constant": false,
      "inputs": [
        {
          "internalType": "uint256",
          "name": "tokens_bought",
          "type": "uint256"
        },
        {
          "internalType": "uint256",
          "name": "max_tokens_sold",
          "type": "uint256"
        },
        {
          "internalType": "uint256",
          "name": "max_iotx_sold",
          "type": "uint256"
        },
        {
          "internalType": "uint256",
          "name": "deadline",
          "type": "uint256"
        },
        {
          "internalType": "address",
          "name": "recipient",
          "type": "address"
        },
        {
          "internalType": "address payable",
          "name": "exchange_addr",
          "type": "address"
        }
      ],
      "name": "tokenToExchangeTransferOutput",
      "outputs": [
        {
          "internalType": "uint256",
          "name": "",
          "type": "uint256"
        }
      ],
      "payable": false,
      "stateMutability": "nonpayable",
      "type": "function"
    },
    {
      "constant": true,
      "inputs": [
        {
          "internalType": "uint256",
          "name": "iotx_sold",
          "type": "uint256"
        }
      ],
      "name": "getIotxToTokenInputPrice",
      "outputs": [
        {
          "internalType": "uint256",
          "name": "",
          "type": "uint256"
        }
      ],
      "payable": false,
      "stateMutability": "view",
      "type": "function"
    },
    {
      "constant": true,
      "inputs": [
        {
          "internalType": "uint256",
          "name": "tokens_bought",
          "type": "uint256"
        }
      ],
      "name": "getIotxToTokenOutputPrice",
      "outputs": [
        {
          "internalType": "uint256",
          "name": "",
          "type": "uint256"
        }
      ],
      "payable": false,
      "stateMutability": "view",
      "type": "function"
    },
    {
      "constant": true,
      "inputs": [
        {
          "internalType": "uint256",
          "name": "tokens_sold",
          "type": "uint256"
        }
      ],
      "name": "getTokenToIotxInputPrice",
      "outputs": [
        {
          "internalType": "uint256",
          "name": "",
          "type": "uint256"
        }
      ],
      "payable": false,
      "stateMutability": "view",
      "type": "function"
    },
    {
      "constant": true,
      "inputs": [
        {
          "internalType": "uint256",
          "name": "iotx_bought",
          "type": "uint256"
        }
      ],
      "name": "getTokenToIotxOutputPrice",
      "outputs": [
        {
          "internalType": "uint256",
          "name": "",
          "type": "uint256"
        }
      ],
      "payable": false,
      "stateMutability": "view",
      "type": "function"
    },
    {
      "constant": true,
      "inputs": [],
      "name": "tokenAddress",
      "outputs": [
        {
          "internalType": "address",
          "name": "",
          "type": "address"
        }
      ],
      "payable": false,
      "stateMutability": "view",
      "type": "function"
    },
    {
      "constant": true,
      "inputs": [],
      "name": "factoryAddress",
      "outputs": [
        {
          "internalType": "address",
          "name": "",
          "type": "address"
        }
      ],
      "payable": false,
      "stateMutability": "view",
      "type": "function"
    },
    {
      "constant": false,
      "inputs": [
        {
          "internalType": "uint256",
          "name": "min_liquidity",
          "type": "uint256"
        },
        {
          "internalType": "uint256",
          "name": "max_tokens",
          "type": "uint256"
        },
        {
          "internalType": "uint256",
          "name": "deadline",
          "type": "uint256"
        }
      ],
      "name": "addLiquidity",
      "outputs": [
        {
          "internalType": "uint256",
          "name": "",
          "type": "uint256"
        }
      ],
      "payable": true,
      "stateMutability": "payable",
      "type": "function"
    },
    {
      "constant": false,
      "inputs": [
        {
          "internalType": "uint256",
          "name": "amount",
          "type": "uint256"
        },
        {
          "internalType": "uint256",
          "name": "min_iotx",
          "type": "uint256"
        },
        {
          "internalType": "uint256",
          "name": "min_tokens",
          "type": "uint256"
        },
        {
          "internalType": "uint256",
          "name": "deadline",
          "type": "uint256"
        }
      ],
      "name": "removeLiquidity",
      "outputs": [
        {
          "internalType": "uint256",
          "name": "",
          "type": "uint256"
        },
        {
          "internalType": "uint256",
          "name": "",
          "type": "uint256"
        }
      ],
      "payable": false,
      "stateMutability": "nonpayable",
      "type": "function"
    }
  ],
  "bytecode": "0x608060405234801561001057600080fd5b50614b83806100206000396000f3fe6080604052600436106102255760003560e01c8063981a132711610123578063d458a2d1116100ab578063eecd096a1161006f578063eecd096a14610f9d578063f3c0efe914610fe9578063f552d91b14611096578063f88bf15a14611143578063fd11c223146111b757610225565b8063d458a2d114610d02578063dd62ed3e14610d51578063ddf7e1a714610dd6578063ea650c7d14610e63578063ec384a3e14610ef057610225565b8063a9059cbb116100f2578063a9059cbb14610aa3578063ae628fd614610b16578063b040d54514610b65578063b1cb43bf14610bf2578063b249902614610c7f57610225565b8063981a1327146108dd5780639d76ea581461098a578063a457c2d7146109e1578063a46f938914610a5457610225565b806360491d35116101b157806389f2a8711161017557806389f2a871146107495780638cbaeacb146107ac5780638ec594e41461080f57806395d89b411461085b578063966dae0e1461088657610225565b806360491d351461055557806363a3085d146105d857806366d382031461064457806370a0823114610695578063796685ac146106fa57610225565b806318160ddd116101f857806318160ddd146103a357806323b872dd146103ce578063313ce56714610461578063395093511461048c578063422f1043146104ff57610225565b80630527fac81461023657806306fdde03146102a2578063095ea7b3146102cd57806310dc202f14610340575b61023334600142333361121a565b50005b61028c6004803603606081101561024c57600080fd5b810190808035906020019092919080359060200190929190803573ffffffffffffffffffffffffffffffffffffffff1690602001909291905050506114a4565b6040518082815260200191505060405180910390f35b3480156102ae57600080fd5b506102b761152e565b6040518082815260200191505060405180910390f35b3480156102d957600080fd5b50610326600480360360408110156102f057600080fd5b81019080803573ffffffffffffffffffffffffffffffffffffffff16906020019092919080359060200190929190505050611534565b604051808215151515815260200191505060405180910390f35b34801561034c57600080fd5b5061038d6004803603606081101561036357600080fd5b8101908080359060200190929190803590602001909291908035906020019092919050505061154b565b6040518082815260200191505060405180910390f35b3480156103af57600080fd5b506103b8611563565b6040518082815260200191505060405180910390f35b3480156103da57600080fd5b50610447600480360360608110156103f157600080fd5b81019080803573ffffffffffffffffffffffffffffffffffffffff169060200190929190803573ffffffffffffffffffffffffffffffffffffffff1690602001909291908035906020019092919050505061156d565b604051808215151515815260200191505060405180910390f35b34801561046d57600080fd5b5061047661161e565b6040518082815260200191505060405180910390f35b34801561049857600080fd5b506104e5600480360360408110156104af57600080fd5b81019080803573ffffffffffffffffffffffffffffffffffffffff16906020019092919080359060200190929190505050611624565b604051808215151515815260200191505060405180910390f35b61053f6004803603606081101561051557600080fd5b810190808035906020019092919080359060200190929190803590602001909291905050506116c9565b6040518082815260200191505060405180910390f35b34801561056157600080fd5b506105c26004803603608081101561057857600080fd5b81019080803590602001909291908035906020019092919080359060200190929190803573ffffffffffffffffffffffffffffffffffffffff169060200190929190505050611ffd565b6040518082815260200191505060405180910390f35b61062e600480360360608110156105ee57600080fd5b810190808035906020019092919080359060200190929190803573ffffffffffffffffffffffffffffffffffffffff169060200190929190505050612088565b6040518082815260200191505060405180910390f35b34801561065057600080fd5b506106936004803603602081101561066757600080fd5b81019080803573ffffffffffffffffffffffffffffffffffffffff169060200190929190505050612112565b005b3480156106a157600080fd5b506106e4600480360360208110156106b857600080fd5b81019080803573ffffffffffffffffffffffffffffffffffffffff16906020019092919050505061234a565b6040518082815260200191505060405180910390f35b34801561070657600080fd5b506107336004803603602081101561071d57600080fd5b8101908080359060200190929190505050612392565b6040518082815260200191505060405180910390f35b34801561075557600080fd5b506107966004803603606081101561076c57600080fd5b810190808035906020019092919080359060200190929190803590602001909291905050506124ae565b6040518082815260200191505060405180910390f35b3480156107b857600080fd5b506107f9600480360360608110156107cf57600080fd5b810190808035906020019092919080359060200190929190803590602001909291905050506125a2565b6040518082815260200191505060405180910390f35b6108456004803603604081101561082557600080fd5b8101908080359060200190929190803590602001909291905050506125ba565b6040518082815260200191505060405180910390f35b34801561086757600080fd5b506108706125d1565b6040518082815260200191505060405180910390f35b34801561089257600080fd5b5061089b6125d7565b604051808273ffffffffffffffffffffffffffffffffffffffff1673ffffffffffffffffffffffffffffffffffffffff16815260200191505060405180910390f35b3480156108e957600080fd5b50610974600480360360c081101561090057600080fd5b8101908080359060200190929190803590602001909291908035906020019092919080359060200190929190803573ffffffffffffffffffffffffffffffffffffffff169060200190929190803573ffffffffffffffffffffffffffffffffffffffff169060200190929190505050612601565b6040518082815260200191505060405180910390f35b34801561099657600080fd5b5061099f612657565b604051808273ffffffffffffffffffffffffffffffffffffffff1673ffffffffffffffffffffffffffffffffffffffff16815260200191505060405180910390f35b3480156109ed57600080fd5b50610a3a60048036036040811015610a0457600080fd5b81019080803573ffffffffffffffffffffffffffffffffffffffff16906020019092919080359060200190929190505050612681565b604051808215151515815260200191505060405180910390f35b348015610a6057600080fd5b50610a8d60048036036020811015610a7757600080fd5b8101908080359060200190929190505050612726565b6040518082815260200191505060405180910390f35b348015610aaf57600080fd5b50610afc60048036036040811015610ac657600080fd5b81019080803573ffffffffffffffffffffffffffffffffffffffff1690602001909291908035906020019092919050505061283c565b604051808215151515815260200191505060405180910390f35b348015610b2257600080fd5b50610b4f60048036036020811015610b3957600080fd5b8101908080359060200190929190505050612853565b6040518082815260200191505060405180910390f35b348015610b7157600080fd5b50610bdc600480360360a0811015610b8857600080fd5b8101908080359060200190929190803590602001909291908035906020019092919080359060200190929190803573ffffffffffffffffffffffffffffffffffffffff169060200190929190505050612969565b6040518082815260200191505060405180910390f35b348015610bfe57600080fd5b50610c69600480360360a0811015610c1557600080fd5b8101908080359060200190929190803590602001909291908035906020019092919080359060200190929190803573ffffffffffffffffffffffffffffffffffffffff169060200190929190505050612a63565b6040518082815260200191505060405180910390f35b348015610c8b57600080fd5b50610cec60048036036080811015610ca257600080fd5b81019080803590602001909291908035906020019092919080359060200190929190803573ffffffffffffffffffffffffffffffffffffffff169060200190929190505050612a7f565b6040518082815260200191505060405180910390f35b348015610d0e57600080fd5b50610d3b60048036036020811015610d2557600080fd5b8101908080359060200190929190505050612b0a565b6040518082815260200191505060405180910390f35b348015610d5d57600080fd5b50610dc060048036036040811015610d7457600080fd5b81019080803573ffffffffffffffffffffffffffffffffffffffff169060200190929190803573ffffffffffffffffffffffffffffffffffffffff169060200190929190505050612c26565b6040518082815260200191505060405180910390f35b348015610de257600080fd5b50610e4d600480360360a0811015610df957600080fd5b8101908080359060200190929190803590602001909291908035906020019092919080359060200190929190803573ffffffffffffffffffffffffffffffffffffffff169060200190929190505050612cad565b6040518082815260200191505060405180910390f35b348015610e6f57600080fd5b50610eda600480360360a0811015610e8657600080fd5b8101908080359060200190929190803590602001909291908035906020019092919080359060200190929190803573ffffffffffffffffffffffffffffffffffffffff169060200190929190505050612da7565b6040518082815260200191505060405180910390f35b348015610efc57600080fd5b50610f87600480360360c0811015610f1357600080fd5b8101908080359060200190929190803590602001909291908035906020019092919080359060200190929190803573ffffffffffffffffffffffffffffffffffffffff169060200190929190803573ffffffffffffffffffffffffffffffffffffffff169060200190929190505050612dc3565b6040518082815260200191505060405180910390f35b610fd360048036036040811015610fb357600080fd5b810190808035906020019092919080359060200190929190505050612e19565b6040518082815260200191505060405180910390f35b348015610ff557600080fd5b50611080600480360360c081101561100c57600080fd5b8101908080359060200190929190803590602001909291908035906020019092919080359060200190929190803573ffffffffffffffffffffffffffffffffffffffff169060200190929190803573ffffffffffffffffffffffffffffffffffffffff169060200190929190505050612e30565b6040518082815260200191505060405180910390f35b3480156110a257600080fd5b5061112d600480360360c08110156110b957600080fd5b8101908080359060200190929190803590602001909291908035906020019092919080359060200190929190803573ffffffffffffffffffffffffffffffffffffffff169060200190929190803573ffffffffffffffffffffffffffffffffffffffff169060200190929190505050612f2b565b6040518082815260200191505060405180910390f35b34801561114f57600080fd5b5061119a6004803603608081101561116657600080fd5b8101908080359060200190929190803590602001909291908035906020019092919080359060200190929190505050613026565b604051808381526020018281526020019250505060405180910390f35b3480156111c357600080fd5b50611204600480360360608110156111da57600080fd5b81019080803590602001909291908035906020019092919080359060200190929190505050613459565b6040518082815260200191505060405180910390f35b600042841015801561122c5750600086115b80156112385750600085115b61124157600080fd5b6000600660009054906101000a900473ffffffffffffffffffffffffffffffffffffffff1673ffffffffffffffffffffffffffffffffffffffff166370a08231306040518263ffffffff1660e01b8152600401808273ffffffffffffffffffffffffffffffffffffffff1673ffffffffffffffffffffffffffffffffffffffff16815260200191505060206040518083038186803b1580156112e257600080fd5b505afa1580156112f6573d6000803e3d6000fd5b505050506040513d602081101561130c57600080fd5b8101908080519060200190929190505050905060006113558861134f8a3073ffffffffffffffffffffffffffffffffffffffff16316134f190919063ffffffff16565b846124ae565b90508681101561136457600080fd5b600660009054906101000a900473ffffffffffffffffffffffffffffffffffffffff1673ffffffffffffffffffffffffffffffffffffffff1663a9059cbb85836040518363ffffffff1660e01b8152600401808373ffffffffffffffffffffffffffffffffffffffff1673ffffffffffffffffffffffffffffffffffffffff16815260200182815260200192505050602060405180830381600087803b15801561140d57600080fd5b505af1158015611421573d6000803e3d6000fd5b505050506040513d602081101561143757600080fd5b810190808051906020019092919050505061145157600080fd5b80888673ffffffffffffffffffffffffffffffffffffffff167fcd60aa75dea3072fbc07ae6d7d856b5dc5f4eee88854f5b4abf7b680ef8bc50f60405160405180910390a4809250505095945050505050565b60003073ffffffffffffffffffffffffffffffffffffffff168273ffffffffffffffffffffffffffffffffffffffff161415801561150f5750600073ffffffffffffffffffffffffffffffffffffffff168273ffffffffffffffffffffffffffffffffffffffff1614155b61151857600080fd5b611525843485338661357a565b90509392505050565b60035481565b6000611541338484613860565b6001905092915050565b600061155a84848433336139bf565b90509392505050565b6000600254905090565b600061157a848484613cb8565b611613843361160e85600160008a73ffffffffffffffffffffffffffffffffffffffff1673ffffffffffffffffffffffffffffffffffffffff16815260200190815260200160002060003373ffffffffffffffffffffffffffffffffffffffff1673ffffffffffffffffffffffffffffffffffffffff168152602001908152602001600020546134f190919063ffffffff16565b613860565b600190509392505050565b60055481565b60006116bf33846116ba85600160003373ffffffffffffffffffffffffffffffffffffffff1673ffffffffffffffffffffffffffffffffffffffff16815260200190815260200160002060008973ffffffffffffffffffffffffffffffffffffffff1673ffffffffffffffffffffffffffffffffffffffff16815260200190815260200160002054613e8290919063ffffffff16565b613860565b6001905092915050565b600042821180156116da5750600083115b80156116e65750600034115b61173b576040517f08c379a000000000000000000000000000000000000000000000000000000000815260040180806020018281038252602b815260200180614b24602b913960400191505060405180910390fd5b600060025490506000811115611b55576000851161175857600080fd5b6000611784343073ffffffffffffffffffffffffffffffffffffffff16316134f190919063ffffffff16565b90506000600660009054906101000a900473ffffffffffffffffffffffffffffffffffffffff1673ffffffffffffffffffffffffffffffffffffffff166370a08231306040518263ffffffff1660e01b8152600401808273ffffffffffffffffffffffffffffffffffffffff1673ffffffffffffffffffffffffffffffffffffffff16815260200191505060206040518083038186803b15801561182757600080fd5b505afa15801561183b573d6000803e3d6000fd5b505050506040513d602081101561185157600080fd5b81019080805190602001909291905050509050600061189560018461187f8534613f0a90919063ffffffff16565b8161188657fe5b04613e8290919063ffffffff16565b90506000836118ad8634613f0a90919063ffffffff16565b816118b457fe5b0490508188101580156118c75750888110155b6118d057600080fd5b611921816000803373ffffffffffffffffffffffffffffffffffffffff1673ffffffffffffffffffffffffffffffffffffffff16815260200190815260200160002054613e8290919063ffffffff16565b6000803373ffffffffffffffffffffffffffffffffffffffff1673ffffffffffffffffffffffffffffffffffffffff168152602001908152602001600020819055506119768186613e8290919063ffffffff16565b600281905550600660009054906101000a900473ffffffffffffffffffffffffffffffffffffffff1673ffffffffffffffffffffffffffffffffffffffff166323b872dd3330856040518463ffffffff1660e01b8152600401808473ffffffffffffffffffffffffffffffffffffffff1673ffffffffffffffffffffffffffffffffffffffff1681526020018373ffffffffffffffffffffffffffffffffffffffff1673ffffffffffffffffffffffffffffffffffffffff1681526020018281526020019350505050602060405180830381600087803b158015611a5957600080fd5b505af1158015611a6d573d6000803e3d6000fd5b505050506040513d6020811015611a8357600080fd5b8101908080519060200190929190505050611a9d57600080fd5b81343373ffffffffffffffffffffffffffffffffffffffff167f06239653922ac7bea6aa2b19dc486b9361821d37712eb796adfd38d81de278ca60405160405180910390a43373ffffffffffffffffffffffffffffffffffffffff16600073ffffffffffffffffffffffffffffffffffffffff167fddf252ad1be2c89b69c2b068fc378daa952ba7f163c4a11628f55a4df523b3ef836040518082815260200191505060405180910390a38095505050505050611ff6565b600073ffffffffffffffffffffffffffffffffffffffff16600760009054906101000a900473ffffffffffffffffffffffffffffffffffffffff1673ffffffffffffffffffffffffffffffffffffffff1614158015611c035750600073ffffffffffffffffffffffffffffffffffffffff16600660009054906101000a900473ffffffffffffffffffffffffffffffffffffffff1673ffffffffffffffffffffffffffffffffffffffff1614155b8015611c135750633b9aca003410155b611c85576040517f08c379a000000000000000000000000000000000000000000000000000000000815260040180806020018281038252600d8152602001807f494e56414c49445f56414c55450000000000000000000000000000000000000081525060200191505060405180910390fd5b3073ffffffffffffffffffffffffffffffffffffffff16600760009054906101000a900473ffffffffffffffffffffffffffffffffffffffff1673ffffffffffffffffffffffffffffffffffffffff166306f2bf62600660009054906101000a900473ffffffffffffffffffffffffffffffffffffffff166040518263ffffffff1660e01b8152600401808273ffffffffffffffffffffffffffffffffffffffff1673ffffffffffffffffffffffffffffffffffffffff16815260200191505060206040518083038186803b158015611d5d57600080fd5b505afa158015611d71573d6000803e3d6000fd5b505050506040513d6020811015611d8757600080fd5b810190808051906020019092919050505073ffffffffffffffffffffffffffffffffffffffff1614611db857600080fd5b600084905060003073ffffffffffffffffffffffffffffffffffffffff1631905080600281905550806000803373ffffffffffffffffffffffffffffffffffffffff1673ffffffffffffffffffffffffffffffffffffffff16815260200190815260200160002081905550600660009054906101000a900473ffffffffffffffffffffffffffffffffffffffff1673ffffffffffffffffffffffffffffffffffffffff166323b872dd3330856040518463ffffffff1660e01b8152600401808473ffffffffffffffffffffffffffffffffffffffff1673ffffffffffffffffffffffffffffffffffffffff1681526020018373ffffffffffffffffffffffffffffffffffffffff1673ffffffffffffffffffffffffffffffffffffffff1681526020018281526020019350505050602060405180830381600087803b158015611f0057600080fd5b505af1158015611f14573d6000803e3d6000fd5b505050506040513d6020811015611f2a57600080fd5b8101908080519060200190929190505050611f4457600080fd5b81343373ffffffffffffffffffffffffffffffffffffffff167f06239653922ac7bea6aa2b19dc486b9361821d37712eb796adfd38d81de278ca60405160405180910390a43373ffffffffffffffffffffffffffffffffffffffff16600073ffffffffffffffffffffffffffffffffffffffff167fddf252ad1be2c89b69c2b068fc378daa952ba7f163c4a11628f55a4df523b3ef836040518082815260200191505060405180910390a38093505050505b9392505050565b60003073ffffffffffffffffffffffffffffffffffffffff168273ffffffffffffffffffffffffffffffffffffffff16141580156120685750600073ffffffffffffffffffffffffffffffffffffffff168273ffffffffffffffffffffffffffffffffffffffff1614155b61207157600080fd5b61207e85858533866139bf565b9050949350505050565b60003073ffffffffffffffffffffffffffffffffffffffff168273ffffffffffffffffffffffffffffffffffffffff16141580156120f35750600073ffffffffffffffffffffffffffffffffffffffff168273ffffffffffffffffffffffffffffffffffffffff1614155b6120fc57600080fd5b612109348585338661121a565b90509392505050565b600073ffffffffffffffffffffffffffffffffffffffff16600760009054906101000a900473ffffffffffffffffffffffffffffffffffffffff1673ffffffffffffffffffffffffffffffffffffffff161480156121be5750600073ffffffffffffffffffffffffffffffffffffffff16600660009054906101000a900473ffffffffffffffffffffffffffffffffffffffff1673ffffffffffffffffffffffffffffffffffffffff16145b80156121f75750600073ffffffffffffffffffffffffffffffffffffffff168173ffffffffffffffffffffffffffffffffffffffff1614155b612269576040517f08c379a000000000000000000000000000000000000000000000000000000000815260040180806020018281038252600f8152602001807f494e56414c49445f41444452455353000000000000000000000000000000000081525060200191505060405180910390fd5b33600760006101000a81548173ffffffffffffffffffffffffffffffffffffffff021916908373ffffffffffffffffffffffffffffffffffffffff16021790555080600660006101000a81548173ffffffffffffffffffffffffffffffffffffffff021916908373ffffffffffffffffffffffffffffffffffffffff1602179055507f6d696d6f0000000000000000000000000000000000000000000000000000000060001b6003819055507f4d494d000000000000000000000000000000000000000000000000000000000060001b600481905550601260058190555050565b60008060008373ffffffffffffffffffffffffffffffffffffffff1673ffffffffffffffffffffffffffffffffffffffff168152602001908152602001600020549050919050565b60008082116123a057600080fd5b6000600660009054906101000a900473ffffffffffffffffffffffffffffffffffffffff1673ffffffffffffffffffffffffffffffffffffffff166370a08231306040518263ffffffff1660e01b8152600401808273ffffffffffffffffffffffffffffffffffffffff1673ffffffffffffffffffffffffffffffffffffffff16815260200191505060206040518083038186803b15801561244157600080fd5b505afa158015612455573d6000803e3d6000fd5b505050506040513d602081101561246b57600080fd5b8101908080519060200190929190505050905060006124a2843073ffffffffffffffffffffffffffffffffffffffff163184613459565b90508092505050919050565b600080831180156124bf5750600082115b612531576040517f08c379a000000000000000000000000000000000000000000000000000000000815260040180806020018281038252600d8152602001807f494e56414c49445f56414c55450000000000000000000000000000000000000081525060200191505060405180910390fd5b60006125486103e586613f0a90919063ffffffff16565b9050600061255f8483613f0a90919063ffffffff16565b9050600061258a8361257c6103e889613f0a90919063ffffffff16565b613e8290919063ffffffff16565b905080828161259557fe5b0493505050509392505050565b60006125b18484843333613fad565b90509392505050565b60006125c9833484333361357a565b905092915050565b60045481565b6000600760009054906101000a900473ffffffffffffffffffffffffffffffffffffffff16905090565b60003073ffffffffffffffffffffffffffffffffffffffff168373ffffffffffffffffffffffffffffffffffffffff16141561263c57600080fd5b61264b87878787338888614294565b90509695505050505050565b6000600660009054906101000a900473ffffffffffffffffffffffffffffffffffffffff16905090565b600061271c338461271785600160003373ffffffffffffffffffffffffffffffffffffffff1673ffffffffffffffffffffffffffffffffffffffff16815260200190815260200160002060008973ffffffffffffffffffffffffffffffffffffffff1673ffffffffffffffffffffffffffffffffffffffff168152602001908152602001600020546134f190919063ffffffff16565b613860565b6001905092915050565b600080821161273457600080fd5b6000600660009054906101000a900473ffffffffffffffffffffffffffffffffffffffff1673ffffffffffffffffffffffffffffffffffffffff166370a08231306040518263ffffffff1660e01b8152600401808273ffffffffffffffffffffffffffffffffffffffff1673ffffffffffffffffffffffffffffffffffffffff16815260200191505060206040518083038186803b1580156127d557600080fd5b505afa1580156127e9573d6000803e3d6000fd5b505050506040513d60208110156127ff57600080fd5b81019080805190602001909291905050509050612834833073ffffffffffffffffffffffffffffffffffffffff1631836124ae565b915050919050565b6000612849338484613cb8565b6001905092915050565b600080821161286157600080fd5b6000600660009054906101000a900473ffffffffffffffffffffffffffffffffffffffff1673ffffffffffffffffffffffffffffffffffffffff166370a08231306040518263ffffffff1660e01b8152600401808273ffffffffffffffffffffffffffffffffffffffff1673ffffffffffffffffffffffffffffffffffffffff16815260200191505060206040518083038186803b15801561290257600080fd5b505afa158015612916573d6000803e3d6000fd5b505050506040513d602081101561292c57600080fd5b8101908080519060200190929190505050905061296183823073ffffffffffffffffffffffffffffffffffffffff1631613459565b915050919050565b600080600760009054906101000a900473ffffffffffffffffffffffffffffffffffffffff1673ffffffffffffffffffffffffffffffffffffffff166306f2bf62846040518263ffffffff1660e01b8152600401808273ffffffffffffffffffffffffffffffffffffffff1673ffffffffffffffffffffffffffffffffffffffff16815260200191505060206040518083038186803b158015612a0b57600080fd5b505afa158015612a1f573d6000803e3d6000fd5b505050506040513d6020811015612a3557600080fd5b81019080805190602001909291905050509050612a5787878787333387614294565b91505095945050505050565b6000612a7486868686333388614721565b905095945050505050565b60003073ffffffffffffffffffffffffffffffffffffffff168273ffffffffffffffffffffffffffffffffffffffff1614158015612aea5750600073ffffffffffffffffffffffffffffffffffffffff168273ffffffffffffffffffffffffffffffffffffffff1614155b612af357600080fd5b612b008585853386613fad565b9050949350505050565b6000808211612b1857600080fd5b6000600660009054906101000a900473ffffffffffffffffffffffffffffffffffffffff1673ffffffffffffffffffffffffffffffffffffffff166370a08231306040518263ffffffff1660e01b8152600401808273ffffffffffffffffffffffffffffffffffffffff1673ffffffffffffffffffffffffffffffffffffffff16815260200191505060206040518083038186803b158015612bb957600080fd5b505afa158015612bcd573d6000803e3d6000fd5b505050506040513d6020811015612be357600080fd5b810190808051906020019092919050505090506000612c1a84833073ffffffffffffffffffffffffffffffffffffffff16316124ae565b90508092505050919050565b6000600160008473ffffffffffffffffffffffffffffffffffffffff1673ffffffffffffffffffffffffffffffffffffffff16815260200190815260200160002060008373ffffffffffffffffffffffffffffffffffffffff1673ffffffffffffffffffffffffffffffffffffffff16815260200190815260200160002054905092915050565b600080600760009054906101000a900473ffffffffffffffffffffffffffffffffffffffff1673ffffffffffffffffffffffffffffffffffffffff166306f2bf62846040518263ffffffff1660e01b8152600401808273ffffffffffffffffffffffffffffffffffffffff1673ffffffffffffffffffffffffffffffffffffffff16815260200191505060206040518083038186803b158015612d4f57600080fd5b505afa158015612d63573d6000803e3d6000fd5b505050506040513d6020811015612d7957600080fd5b81019080805190602001909291905050509050612d9b87878787333387614721565b91505095945050505050565b6000612db886868686333388614294565b905095945050505050565b60003073ffffffffffffffffffffffffffffffffffffffff168373ffffffffffffffffffffffffffffffffffffffff161415612dfe57600080fd5b612e0d87878787338888614721565b90509695505050505050565b6000612e28348484333361121a565b905092915050565b600080600760009054906101000a900473ffffffffffffffffffffffffffffffffffffffff1673ffffffffffffffffffffffffffffffffffffffff166306f2bf62846040518263ffffffff1660e01b8152600401808273ffffffffffffffffffffffffffffffffffffffff1673ffffffffffffffffffffffffffffffffffffffff16815260200191505060206040518083038186803b158015612ed257600080fd5b505afa158015612ee6573d6000803e3d6000fd5b505050506040513d6020811015612efc57600080fd5b81019080805190602001909291905050509050612f1e88888888338987614294565b9150509695505050505050565b600080600760009054906101000a900473ffffffffffffffffffffffffffffffffffffffff1673ffffffffffffffffffffffffffffffffffffffff166306f2bf62846040518263ffffffff1660e01b8152600401808273ffffffffffffffffffffffffffffffffffffffff1673ffffffffffffffffffffffffffffffffffffffff16815260200191505060206040518083038186803b158015612fcd57600080fd5b505afa158015612fe1573d6000803e3d6000fd5b505050506040513d6020811015612ff757600080fd5b8101908080519060200190929190505050905061301988888888338987614721565b9150509695505050505050565b60008060008611801561303857504283115b80156130445750600085115b80156130505750600084115b61305957600080fd5b600060025490506000811161306d57600080fd5b6000600660009054906101000a900473ffffffffffffffffffffffffffffffffffffffff1673ffffffffffffffffffffffffffffffffffffffff166370a08231306040518263ffffffff1660e01b8152600401808273ffffffffffffffffffffffffffffffffffffffff1673ffffffffffffffffffffffffffffffffffffffff16815260200191505060206040518083038186803b15801561310e57600080fd5b505afa158015613122573d6000803e3d6000fd5b505050506040513d602081101561313857600080fd5b810190808051906020019092919050505090506000826131783073ffffffffffffffffffffffffffffffffffffffff16318b613f0a90919063ffffffff16565b8161317f57fe5b049050600083613198848c613f0a90919063ffffffff16565b8161319f57fe5b0490508882101580156131b25750878110155b6131bb57600080fd5b61320c8a6000803373ffffffffffffffffffffffffffffffffffffffff1673ffffffffffffffffffffffffffffffffffffffff168152602001908152602001600020546134f190919063ffffffff16565b6000803373ffffffffffffffffffffffffffffffffffffffff1673ffffffffffffffffffffffffffffffffffffffff168152602001908152602001600020819055506132618a856134f190919063ffffffff16565b6002819055503373ffffffffffffffffffffffffffffffffffffffff166108fc839081150290604051600060405180830381858888f193505050501580156132ad573d6000803e3d6000fd5b50600660009054906101000a900473ffffffffffffffffffffffffffffffffffffffff1673ffffffffffffffffffffffffffffffffffffffff1663a9059cbb33836040518363ffffffff1660e01b8152600401808373ffffffffffffffffffffffffffffffffffffffff1673ffffffffffffffffffffffffffffffffffffffff16815260200182815260200192505050602060405180830381600087803b15801561335757600080fd5b505af115801561336b573d6000803e3d6000fd5b505050506040513d602081101561338157600080fd5b810190808051906020019092919050505061339b57600080fd5b80823373ffffffffffffffffffffffffffffffffffffffff167f0fbf06c058b90cb038a618f8c2acbf6145f8b3570fd1fa56abb8f0f3f05b36e860405160405180910390a4600073ffffffffffffffffffffffffffffffffffffffff163373ffffffffffffffffffffffffffffffffffffffff167fddf252ad1be2c89b69c2b068fc378daa952ba7f163c4a11628f55a4df523b3ef8c6040518082815260200191505060405180910390a38181955095505050505094509492505050565b6000808311801561346a5750600082115b61347357600080fd5b600061349c6103e861348e8787613f0a90919063ffffffff16565b613f0a90919063ffffffff16565b905060006134c76103e56134b988876134f190919063ffffffff16565b613f0a90919063ffffffff16565b90506134e660018284816134d757fe5b04613e8290919063ffffffff16565b925050509392505050565b600082821115613569576040517f08c379a00000000000000000000000000000000000000000000000000000000081526004018080602001828103825260178152602001807f536166654d617468237375623a20554e444552464c4f5700000000000000000081525060200191505060405180910390fd5b600082840390508091505092915050565b600042841015801561358c5750600086115b80156135985750600085115b6135a157600080fd5b6000600660009054906101000a900473ffffffffffffffffffffffffffffffffffffffff1673ffffffffffffffffffffffffffffffffffffffff166370a08231306040518263ffffffff1660e01b8152600401808273ffffffffffffffffffffffffffffffffffffffff1673ffffffffffffffffffffffffffffffffffffffff16815260200191505060206040518083038186803b15801561364257600080fd5b505afa158015613656573d6000803e3d6000fd5b505050506040513d602081101561366c57600080fd5b8101908080519060200190929190505050905060006136b5886136af893073ffffffffffffffffffffffffffffffffffffffff16316134f190919063ffffffff16565b84613459565b905060006136cc82896134f190919063ffffffff16565b9050600081111561371f578573ffffffffffffffffffffffffffffffffffffffff166108fc829081150290604051600060405180830381858888f1935050505015801561371d573d6000803e3d6000fd5b505b600660009054906101000a900473ffffffffffffffffffffffffffffffffffffffff1673ffffffffffffffffffffffffffffffffffffffff1663a9059cbb868b6040518363ffffffff1660e01b8152600401808373ffffffffffffffffffffffffffffffffffffffff1673ffffffffffffffffffffffffffffffffffffffff16815260200182815260200192505050602060405180830381600087803b1580156137c857600080fd5b505af11580156137dc573d6000803e3d6000fd5b505050506040513d60208110156137f257600080fd5b810190808051906020019092919050505061380c57600080fd5b88828773ffffffffffffffffffffffffffffffffffffffff167fcd60aa75dea3072fbc07ae6d7d856b5dc5f4eee88854f5b4abf7b680ef8bc50f60405160405180910390a481935050505095945050505050565b600073ffffffffffffffffffffffffffffffffffffffff168273ffffffffffffffffffffffffffffffffffffffff16141561389a57600080fd5b600073ffffffffffffffffffffffffffffffffffffffff168373ffffffffffffffffffffffffffffffffffffffff1614156138d457600080fd5b80600160008573ffffffffffffffffffffffffffffffffffffffff1673ffffffffffffffffffffffffffffffffffffffff16815260200190815260200160002060008473ffffffffffffffffffffffffffffffffffffffff1673ffffffffffffffffffffffffffffffffffffffff168152602001908152602001600020819055508173ffffffffffffffffffffffffffffffffffffffff168373ffffffffffffffffffffffffffffffffffffffff167f8c5be1e5ebec7d5bd14f71427d1e84f3dd0314c0f7b2291e5b200ac8c7c3b925836040518082815260200191505060405180910390a3505050565b60004284101580156139d15750600086115b80156139dd5750600085115b6139e657600080fd5b6000600660009054906101000a900473ffffffffffffffffffffffffffffffffffffffff1673ffffffffffffffffffffffffffffffffffffffff166370a08231306040518263ffffffff1660e01b8152600401808273ffffffffffffffffffffffffffffffffffffffff1673ffffffffffffffffffffffffffffffffffffffff16815260200191505060206040518083038186803b158015613a8757600080fd5b505afa158015613a9b573d6000803e3d6000fd5b505050506040513d6020811015613ab157600080fd5b810190808051906020019092919050505090506000613ae888833073ffffffffffffffffffffffffffffffffffffffff16316124ae565b9050600081905087811015613afc57600080fd5b8473ffffffffffffffffffffffffffffffffffffffff166108fc829081150290604051600060405180830381858888f19350505050158015613b42573d6000803e3d6000fd5b50600660009054906101000a900473ffffffffffffffffffffffffffffffffffffffff1673ffffffffffffffffffffffffffffffffffffffff166323b872dd87308c6040518463ffffffff1660e01b8152600401808473ffffffffffffffffffffffffffffffffffffffff1673ffffffffffffffffffffffffffffffffffffffff1681526020018373ffffffffffffffffffffffffffffffffffffffff1673ffffffffffffffffffffffffffffffffffffffff1681526020018281526020019350505050602060405180830381600087803b158015613c2057600080fd5b505af1158015613c34573d6000803e3d6000fd5b505050506040513d6020811015613c4a57600080fd5b8101908080519060200190929190505050613c6457600080fd5b80898773ffffffffffffffffffffffffffffffffffffffff167fbd5084afcc95a37b2846c5adaf2918caab943ad011b8830b1eb3f7ff81a8b24f60405160405180910390a480935050505095945050505050565b600073ffffffffffffffffffffffffffffffffffffffff168273ffffffffffffffffffffffffffffffffffffffff161415613cf257600080fd5b613d43816000808673ffffffffffffffffffffffffffffffffffffffff1673ffffffffffffffffffffffffffffffffffffffff168152602001908152602001600020546134f190919063ffffffff16565b6000808573ffffffffffffffffffffffffffffffffffffffff1673ffffffffffffffffffffffffffffffffffffffff16815260200190815260200160002081905550613dd6816000808573ffffffffffffffffffffffffffffffffffffffff1673ffffffffffffffffffffffffffffffffffffffff16815260200190815260200160002054613e8290919063ffffffff16565b6000808473ffffffffffffffffffffffffffffffffffffffff1673ffffffffffffffffffffffffffffffffffffffff168152602001908152602001600020819055508173ffffffffffffffffffffffffffffffffffffffff168373ffffffffffffffffffffffffffffffffffffffff167fddf252ad1be2c89b69c2b068fc378daa952ba7f163c4a11628f55a4df523b3ef836040518082815260200191505060405180910390a3505050565b600080828401905083811015613f00576040517f08c379a00000000000000000000000000000000000000000000000000000000081526004018080602001828103825260168152602001807f536166654d617468236164643a204f564552464c4f570000000000000000000081525060200191505060405180910390fd5b8091505092915050565b600080831415613f1d5760009050613fa7565b6000828402905082848281613f2e57fe5b0414613fa2576040517f08c379a00000000000000000000000000000000000000000000000000000000081526004018080602001828103825260168152602001807f536166654d617468236d756c3a204f564552464c4f570000000000000000000081525060200191505060405180910390fd5b809150505b92915050565b6000428410158015613fbf5750600086115b613fc857600080fd5b6000600660009054906101000a900473ffffffffffffffffffffffffffffffffffffffff1673ffffffffffffffffffffffffffffffffffffffff166370a08231306040518263ffffffff1660e01b8152600401808273ffffffffffffffffffffffffffffffffffffffff1673ffffffffffffffffffffffffffffffffffffffff16815260200191505060206040518083038186803b15801561406957600080fd5b505afa15801561407d573d6000803e3d6000fd5b505050506040513d602081101561409357600080fd5b8101908080519060200190929190505050905060006140ca88833073ffffffffffffffffffffffffffffffffffffffff1631613459565b9050808710156140d957600080fd5b8373ffffffffffffffffffffffffffffffffffffffff166108fc899081150290604051600060405180830381858888f1935050505015801561411f573d6000803e3d6000fd5b50600660009054906101000a900473ffffffffffffffffffffffffffffffffffffffff1673ffffffffffffffffffffffffffffffffffffffff166323b872dd8630846040518463ffffffff1660e01b8152600401808473ffffffffffffffffffffffffffffffffffffffff1673ffffffffffffffffffffffffffffffffffffffff1681526020018373ffffffffffffffffffffffffffffffffffffffff1673ffffffffffffffffffffffffffffffffffffffff1681526020018281526020019350505050602060405180830381600087803b1580156141fd57600080fd5b505af1158015614211573d6000803e3d6000fd5b505050506040513d602081101561422757600080fd5b810190808051906020019092919050505061424157600080fd5b87818673ffffffffffffffffffffffffffffffffffffffff167fbd5084afcc95a37b2846c5adaf2918caab943ad011b8830b1eb3f7ff81a8b24f60405160405180910390a4809250505095945050505050565b60004285101580156142b257506000881180156142b15750600086115b5b6142bb57600080fd5b3073ffffffffffffffffffffffffffffffffffffffff168273ffffffffffffffffffffffffffffffffffffffff16141580156143245750600073ffffffffffffffffffffffffffffffffffffffff168273ffffffffffffffffffffffffffffffffffffffff1614155b61432d57600080fd5b60008273ffffffffffffffffffffffffffffffffffffffff1663796685ac8a6040518263ffffffff1660e01b81526004018082815260200191505060206040518083038186803b15801561438057600080fd5b505afa158015614394573d6000803e3d6000fd5b505050506040513d60208110156143aa57600080fd5b810190808051906020019092919050505090506000600660009054906101000a900473ffffffffffffffffffffffffffffffffffffffff1673ffffffffffffffffffffffffffffffffffffffff166370a08231306040518263ffffffff1660e01b8152600401808273ffffffffffffffffffffffffffffffffffffffff1673ffffffffffffffffffffffffffffffffffffffff16815260200191505060206040518083038186803b15801561445e57600080fd5b505afa158015614472573d6000803e3d6000fd5b505050506040513d602081101561448857600080fd5b8101908080519060200190929190505050905060006144bf83833073ffffffffffffffffffffffffffffffffffffffff1631613459565b9050808a101580156144d15750828910155b6144da57600080fd5b600660009054906101000a900473ffffffffffffffffffffffffffffffffffffffff1673ffffffffffffffffffffffffffffffffffffffff166323b872dd8830846040518463ffffffff1660e01b8152600401808473ffffffffffffffffffffffffffffffffffffffff1673ffffffffffffffffffffffffffffffffffffffff1681526020018373ffffffffffffffffffffffffffffffffffffffff1673ffffffffffffffffffffffffffffffffffffffff1681526020018281526020019350505050602060405180830381600087803b1580156145b757600080fd5b505af11580156145cb573d6000803e3d6000fd5b505050506040513d60208110156145e157600080fd5b81019080805190602001909291905050506145fb57600080fd5b60008573ffffffffffffffffffffffffffffffffffffffff16630527fac8858e8c8b6040518563ffffffff1660e01b8152600401808481526020018381526020018273ffffffffffffffffffffffffffffffffffffffff1673ffffffffffffffffffffffffffffffffffffffff16815260200193505050506020604051808303818588803b15801561468c57600080fd5b505af11580156146a0573d6000803e3d6000fd5b50505050506040513d60208110156146b757600080fd5b8101908080519060200190929190505050905083828973ffffffffffffffffffffffffffffffffffffffff167fbd5084afcc95a37b2846c5adaf2918caab943ad011b8830b1eb3f7ff81a8b24f60405160405180910390a481945050505050979650505050505050565b60004285101580156147335750600088115b801561473f5750600087115b801561474b5750600086115b61475457600080fd5b3073ffffffffffffffffffffffffffffffffffffffff168273ffffffffffffffffffffffffffffffffffffffff16141580156147bd5750600073ffffffffffffffffffffffffffffffffffffffff168273ffffffffffffffffffffffffffffffffffffffff1614155b6147c657600080fd5b6000600660009054906101000a900473ffffffffffffffffffffffffffffffffffffffff1673ffffffffffffffffffffffffffffffffffffffff166370a08231306040518263ffffffff1660e01b8152600401808273ffffffffffffffffffffffffffffffffffffffff1673ffffffffffffffffffffffffffffffffffffffff16815260200191505060206040518083038186803b15801561486757600080fd5b505afa15801561487b573d6000803e3d6000fd5b505050506040513d602081101561489157600080fd5b8101908080519060200190929190505050905060006148c88a833073ffffffffffffffffffffffffffffffffffffffff16316124ae565b90506000819050888110156148dc57600080fd5b600660009054906101000a900473ffffffffffffffffffffffffffffffffffffffff1673ffffffffffffffffffffffffffffffffffffffff166323b872dd88308e6040518463ffffffff1660e01b8152600401808473ffffffffffffffffffffffffffffffffffffffff1673ffffffffffffffffffffffffffffffffffffffff1681526020018373ffffffffffffffffffffffffffffffffffffffff1673ffffffffffffffffffffffffffffffffffffffff1681526020018281526020019350505050602060405180830381600087803b1580156149b957600080fd5b505af11580156149cd573d6000803e3d6000fd5b505050506040513d60208110156149e357600080fd5b81019080805190602001909291905050506149fd57600080fd5b60008573ffffffffffffffffffffffffffffffffffffffff166363a3085d838d8c8b6040518563ffffffff1660e01b8152600401808481526020018381526020018273ffffffffffffffffffffffffffffffffffffffff1673ffffffffffffffffffffffffffffffffffffffff16815260200193505050506020604051808303818588803b158015614a8e57600080fd5b505af1158015614aa2573d6000803e3d6000fd5b50505050506040513d6020811015614ab957600080fd5b81019080805190602001909291905050509050818c8973ffffffffffffffffffffffffffffffffffffffff167fbd5084afcc95a37b2846c5adaf2918caab943ad011b8830b1eb3f7ff81a8b24f60405160405180910390a48094505050505097965050505050505056fe4d696d6f45786368616e6765236164644c69717569646974793a20494e56414c49445f415247554d454e54a265627a7a7231582080770e3d8d9afc8aec49ac35c2115ec24e980742314960e9ca9f6d95b025de3664736f6c634300050c0032",
  "source": "pragma solidity ^0.5.0;\nimport \"./ERC20.sol\";\nimport \"./IERC20.sol\";\nimport \"./IMimoFactory.sol\";\nimport \"./IMimoExchange.sol\";\n\ncontract MimoExchange is ERC20 {\n    /***********************************|\n  |        Variables && Events        |\n  |__________________________________*/\n\n    // Variables\n    bytes32 public name; // mimo\n    bytes32 public symbol; // MIM\n    uint256 public decimals; // 18\n    IERC20 token; // address of the ERC20 token traded on this contract\n    IMimoFactory factory; // interface for the factory that created this contract\n\n    // Events\n    event TokenPurchase(\n        address indexed buyer,\n        uint256 indexed iotx_sold,\n        uint256 indexed tokens_bought\n    );\n    event IotxPurchase(\n        address indexed buyer,\n        uint256 indexed tokens_sold,\n        uint256 indexed iotx_bought\n    );\n    event AddLiquidity(\n        address indexed provider,\n        uint256 indexed iotx_amount,\n        uint256 indexed token_amount\n    );\n    event RemoveLiquidity(\n        address indexed provider,\n        uint256 indexed iotx_amount,\n        uint256 indexed token_amount\n    );\n\n    /***********************************|\n  |            Constsructor           |\n  |__________________________________*/\n\n    /**\n     * @dev This function acts as a contract constructor which is not currently supported in contracts deployed\n     *      using create_with_code_of(). It is called once by the factory during contract creation.\n     */\n    function setup(address token_addr) public {\n        require(\n            address(factory) == address(0) &&\n                address(token) == address(0) &&\n                token_addr != address(0),\n            \"INVALID_ADDRESS\"\n        );\n        factory = IMimoFactory(msg.sender);\n        token = IERC20(token_addr);\n        name = 0x6d696d6f00000000000000000000000000000000000000000000000000000000;\n        symbol = 0x4d494d0000000000000000000000000000000000000000000000000000000000;\n        decimals = 18;\n    }\n\n    /***********************************|\n  |        Exchange Functions         |\n  |__________________________________*/\n\n    /**\n     * @notice Convert IOTX to Tokens.\n     * @dev User specifies exact input (msg.value).\n     * @dev User cannot specify minimum output or deadline.\n     */\n    function() external payable {\n        iotxToTokenInput(msg.value, 1, block.timestamp, msg.sender, msg.sender);\n    }\n\n    /**\n     * @dev Pricing function for converting between IOTX && Tokens.\n     * @param input_amount Amount of IOTX or Tokens being sold.\n     * @param input_reserve Amount of IOTX or Tokens (input type) in exchange reserves.\n     * @param output_reserve Amount of IOTX or Tokens (output type) in exchange reserves.\n     * @return Amount of IOTX or Tokens bought.\n     */\n    function getInputPrice(\n        uint256 input_amount,\n        uint256 input_reserve,\n        uint256 output_reserve\n    ) public pure returns (uint256) {\n        require(input_reserve > 0 && output_reserve > 0, \"INVALID_VALUE\");\n        uint256 input_amount_with_fee = input_amount.mul(997);\n        uint256 numerator = input_amount_with_fee.mul(output_reserve);\n        uint256 denominator = input_reserve.mul(1000).add(\n            input_amount_with_fee\n        );\n        return numerator / denominator;\n    }\n\n    /**\n     * @dev Pricing function for converting between IOTX && Tokens.\n     * @param output_amount Amount of IOTX or Tokens being bought.\n     * @param input_reserve Amount of IOTX or Tokens (input type) in exchange reserves.\n     * @param output_reserve Amount of IOTX or Tokens (output type) in exchange reserves.\n     * @return Amount of IOTX or Tokens sold.\n     */\n    function getOutputPrice(\n        uint256 output_amount,\n        uint256 input_reserve,\n        uint256 output_reserve\n    ) public pure returns (uint256) {\n        require(input_reserve > 0 && output_reserve > 0);\n        uint256 numerator = input_reserve.mul(output_amount).mul(1000);\n        uint256 denominator = (output_reserve.sub(output_amount)).mul(997);\n        return (numerator / denominator).add(1);\n    }\n\n    function iotxToTokenInput(\n        uint256 iotx_sold,\n        uint256 min_tokens,\n        uint256 deadline,\n        address buyer,\n        address recipient\n    ) private returns (uint256) {\n        require(deadline >= block.timestamp && iotx_sold > 0 && min_tokens > 0);\n        uint256 token_reserve = token.balanceOf(address(this));\n        uint256 tokens_bought = getInputPrice(\n            iotx_sold,\n            address(this).balance.sub(iotx_sold),\n            token_reserve\n        );\n        require(tokens_bought >= min_tokens);\n        require(token.transfer(recipient, tokens_bought));\n        emit TokenPurchase(buyer, iotx_sold, tokens_bought);\n        return tokens_bought;\n    }\n\n    /**\n     * @notice Convert IOTX to Tokens.\n     * @dev User specifies exact input (msg.value) && minimum output.\n     * @param min_tokens Minimum Tokens bought.\n     * @param deadline Time after which this transaction can no longer be executed.\n     * @return Amount of Tokens bought.\n     */\n\n    function iotxToTokenSwapInput(uint256 min_tokens, uint256 deadline)\n        public\n        payable\n        returns (uint256)\n    {\n        return\n            iotxToTokenInput(\n                msg.value,\n                min_tokens,\n                deadline,\n                msg.sender,\n                msg.sender\n            );\n    }\n\n    /**\n     * @notice Convert IOTX to Tokens && transfers Tokens to recipient.\n     * @dev User specifies exact input (msg.value) && minimum output\n     * @param min_tokens Minimum Tokens bought.\n     * @param deadline Time after which this transaction can no longer be executed.\n     * @param recipient The address that receives output Tokens.\n     * @return  Amount of Tokens bought.\n     */\n    function iotxToTokenTransferInput(\n        uint256 min_tokens,\n        uint256 deadline,\n        address recipient\n    ) public payable returns (uint256) {\n        require(recipient != address(this) && recipient != address(0));\n        return\n            iotxToTokenInput(\n                msg.value,\n                min_tokens,\n                deadline,\n                msg.sender,\n                recipient\n            );\n    }\n\n    function iotxToTokenOutput(\n        uint256 tokens_bought,\n        uint256 max_iotx,\n        uint256 deadline,\n        address payable buyer,\n        address recipient\n    ) private returns (uint256) {\n        require(\n            deadline >= block.timestamp && tokens_bought > 0 && max_iotx > 0\n        );\n        uint256 token_reserve = token.balanceOf(address(this));\n        uint256 iotx_sold = getOutputPrice(\n            tokens_bought,\n            address(this).balance.sub(max_iotx),\n            token_reserve\n        );\n        // Throws if iotx_sold > max_iotx\n        uint256 iotx_refund = max_iotx.sub(iotx_sold);\n        if (iotx_refund > 0) {\n            buyer.transfer(iotx_refund);\n        }\n        require(token.transfer(recipient, tokens_bought));\n        emit TokenPurchase(buyer, iotx_sold, tokens_bought);\n        return iotx_sold;\n    }\n\n    /**\n     * @notice Convert IOTX to Tokens.\n     * @dev User specifies maximum input (msg.value) && exact output.\n     * @param tokens_bought Amount of tokens bought.\n     * @param deadline Time after which this transaction can no longer be executed.\n     * @return Amount of IOTX sold.\n     */\n    function iotxToTokenSwapOutput(uint256 tokens_bought, uint256 deadline)\n        public\n        payable\n        returns (uint256)\n    {\n        return\n            iotxToTokenOutput(\n                tokens_bought,\n                msg.value,\n                deadline,\n                msg.sender,\n                msg.sender\n            );\n    }\n\n    /**\n     * @notice Convert IOTX to Tokens && transfers Tokens to recipient.\n     * @dev User specifies maximum input (msg.value) && exact output.\n     * @param tokens_bought Amount of tokens bought.\n     * @param deadline Time after which this transaction can no longer be executed.\n     * @param recipient The address that receives output Tokens.\n     * @return Amount of IOTX sold.\n     */\n    function iotxToTokenTransferOutput(\n        uint256 tokens_bought,\n        uint256 deadline,\n        address recipient\n    ) public payable returns (uint256) {\n        require(recipient != address(this) && recipient != address(0));\n        return\n            iotxToTokenOutput(\n                tokens_bought,\n                msg.value,\n                deadline,\n                msg.sender,\n                recipient\n            );\n    }\n\n    function tokenToIotxInput(\n        uint256 tokens_sold,\n        uint256 min_iotx,\n        uint256 deadline,\n        address buyer,\n        address payable recipient\n    ) private returns (uint256) {\n        require(deadline >= block.timestamp && tokens_sold > 0 && min_iotx > 0);\n        uint256 token_reserve = token.balanceOf(address(this));\n        uint256 iotx_bought = getInputPrice(\n            tokens_sold,\n            token_reserve,\n            address(this).balance\n        );\n        uint256 wei_bought = iotx_bought;\n        require(wei_bought >= min_iotx);\n        recipient.transfer(wei_bought);\n        require(token.transferFrom(buyer, address(this), tokens_sold));\n        emit IotxPurchase(buyer, tokens_sold, wei_bought);\n        return wei_bought;\n    }\n\n    /**\n     * @notice Convert Tokens to IOTX.\n     * @dev User specifies exact input && minimum output.\n     * @param tokens_sold Amount of Tokens sold.\n     * @param min_iotx Minimum IOTX purchased.\n     * @param deadline Time after which this transaction can no longer be executed.\n     * @return Amount of IOTX bought.\n     */\n    function tokenToIotxSwapInput(\n        uint256 tokens_sold,\n        uint256 min_iotx,\n        uint256 deadline\n    ) public returns (uint256) {\n        return\n            tokenToIotxInput(\n                tokens_sold,\n                min_iotx,\n                deadline,\n                msg.sender,\n                msg.sender\n            );\n    }\n\n    /**\n     * @notice Convert Tokens to IOTX && transfers IOTX to recipient.\n     * @dev User specifies exact input && minimum output.\n     * @param tokens_sold Amount of Tokens sold.\n     * @param min_iotx Minimum IOTX purchased.\n     * @param deadline Time after which this transaction can no longer be executed.\n     * @param recipient The address that receives output IOTX.\n     * @return  Amount of IOTX bought.\n     */\n    function tokenToIotxTransferInput(\n        uint256 tokens_sold,\n        uint256 min_iotx,\n        uint256 deadline,\n        address payable recipient\n    ) public returns (uint256) {\n        require(recipient != address(this) && recipient != address(0));\n        return\n            tokenToIotxInput(\n                tokens_sold,\n                min_iotx,\n                deadline,\n                msg.sender,\n                recipient\n            );\n    }\n\n    function tokenToIotxOutput(\n        uint256 iotx_bought,\n        uint256 max_tokens,\n        uint256 deadline,\n        address buyer,\n        address payable recipient\n    ) private returns (uint256) {\n        require(deadline >= block.timestamp && iotx_bought > 0);\n        uint256 token_reserve = token.balanceOf(address(this));\n        uint256 tokens_sold = getOutputPrice(\n            iotx_bought,\n            token_reserve,\n            address(this).balance\n        );\n        // tokens sold is always > 0\n        require(max_tokens >= tokens_sold);\n        recipient.transfer(iotx_bought);\n        require(token.transferFrom(buyer, address(this), tokens_sold));\n        emit IotxPurchase(buyer, tokens_sold, iotx_bought);\n        return tokens_sold;\n    }\n\n    /**\n     * @notice Convert Tokens to IOTX.\n     * @dev User specifies maximum input && exact output.\n     * @param iotx_bought Amount of IOTX purchased.\n     * @param max_tokens Maximum Tokens sold.\n     * @param deadline Time after which this transaction can no longer be executed.\n     * @return Amount of Tokens sold.\n     */\n    function tokenToIotxSwapOutput(\n        uint256 iotx_bought,\n        uint256 max_tokens,\n        uint256 deadline\n    ) public returns (uint256) {\n        return\n            tokenToIotxOutput(\n                iotx_bought,\n                max_tokens,\n                deadline,\n                msg.sender,\n                msg.sender\n            );\n    }\n\n    /**\n     * @notice Convert Tokens to IOTX && transfers IOTX to recipient.\n     * @dev User specifies maximum input && exact output.\n     * @param iotx_bought Amount of IOTX purchased.\n     * @param max_tokens Maximum Tokens sold.\n     * @param deadline Time after which this transaction can no longer be executed.\n     * @param recipient The address that receives output IOTX.\n     * @return Amount of Tokens sold.\n     */\n    function tokenToIotxTransferOutput(\n        uint256 iotx_bought,\n        uint256 max_tokens,\n        uint256 deadline,\n        address payable recipient\n    ) public returns (uint256) {\n        require(recipient != address(this) && recipient != address(0));\n        return\n            tokenToIotxOutput(\n                iotx_bought,\n                max_tokens,\n                deadline,\n                msg.sender,\n                recipient\n            );\n    }\n\n    function tokenToTokenInput(\n        uint256 tokens_sold,\n        uint256 min_tokens_bought,\n        uint256 min_iotx_bought,\n        uint256 deadline,\n        address buyer,\n        address recipient,\n        address payable exchange_addr\n    ) private returns (uint256) {\n        require(\n            deadline >= block.timestamp &&\n                tokens_sold > 0 &&\n                min_tokens_bought > 0 &&\n                min_iotx_bought > 0\n        );\n        require(exchange_addr != address(this) && exchange_addr != address(0));\n        uint256 token_reserve = token.balanceOf(address(this));\n        uint256 iotx_bought = getInputPrice(\n            tokens_sold,\n            token_reserve,\n            address(this).balance\n        );\n        uint256 wei_bought = iotx_bought;\n        require(wei_bought >= min_iotx_bought);\n        require(token.transferFrom(buyer, address(this), tokens_sold));\n        uint256 tokens_bought = IMimoExchange(exchange_addr)\n            .iotxToTokenTransferInput\n            .value(wei_bought)(min_tokens_bought, deadline, recipient);\n        emit IotxPurchase(buyer, tokens_sold, wei_bought);\n        return tokens_bought;\n    }\n\n    /**\n     * @notice Convert Tokens (token) to Tokens (token_addr).\n     * @dev User specifies exact input && minimum output.\n     * @param tokens_sold Amount of Tokens sold.\n     * @param min_tokens_bought Minimum Tokens (token_addr) purchased.\n     * @param min_iotx_bought Minimum IOTX purchased as intermediary.\n     * @param deadline Time after which this transaction can no longer be executed.\n     * @param token_addr The address of the token being purchased.\n     * @return Amount of Tokens (token_addr) bought.\n     */\n    function tokenToTokenSwapInput(\n        uint256 tokens_sold,\n        uint256 min_tokens_bought,\n        uint256 min_iotx_bought,\n        uint256 deadline,\n        address token_addr\n    ) public returns (uint256) {\n        address payable exchange_addr = factory.getExchange(token_addr);\n        return\n            tokenToTokenInput(\n                tokens_sold,\n                min_tokens_bought,\n                min_iotx_bought,\n                deadline,\n                msg.sender,\n                msg.sender,\n                exchange_addr\n            );\n    }\n\n    /**\n     * @notice Convert Tokens (token) to Tokens (token_addr) && transfers\n     *         Tokens (token_addr) to recipient.\n     * @dev User specifies exact input && minimum output.\n     * @param tokens_sold Amount of Tokens sold.\n     * @param min_tokens_bought Minimum Tokens (token_addr) purchased.\n     * @param min_iotx_bought Minimum IOTX purchased as intermediary.\n     * @param deadline Time after which this transaction can no longer be executed.\n     * @param recipient The address that receives output IOTX.\n     * @param token_addr The address of the token being purchased.\n     * @return Amount of Tokens (token_addr) bought.\n     */\n    function tokenToTokenTransferInput(\n        uint256 tokens_sold,\n        uint256 min_tokens_bought,\n        uint256 min_iotx_bought,\n        uint256 deadline,\n        address recipient,\n        address token_addr\n    ) public returns (uint256) {\n        address payable exchange_addr = factory.getExchange(token_addr);\n        return\n            tokenToTokenInput(\n                tokens_sold,\n                min_tokens_bought,\n                min_iotx_bought,\n                deadline,\n                msg.sender,\n                recipient,\n                exchange_addr\n            );\n    }\n\n    function tokenToTokenOutput(\n        uint256 tokens_bought,\n        uint256 max_tokens_sold,\n        uint256 max_iotx_sold,\n        uint256 deadline,\n        address buyer,\n        address recipient,\n        address payable exchange_addr\n    ) private returns (uint256) {\n        require(\n            deadline >= block.timestamp &&\n                (tokens_bought > 0 && max_iotx_sold > 0)\n        );\n        require(exchange_addr != address(this) && exchange_addr != address(0));\n        uint256 iotx_bought = IMimoExchange(exchange_addr)\n            .getIotxToTokenOutputPrice(tokens_bought);\n        uint256 token_reserve = token.balanceOf(address(this));\n        uint256 tokens_sold = getOutputPrice(\n            iotx_bought,\n            token_reserve,\n            address(this).balance\n        );\n        // tokens sold is always > 0\n        require(max_tokens_sold >= tokens_sold && max_iotx_sold >= iotx_bought);\n        require(token.transferFrom(buyer, address(this), tokens_sold));\n        uint256 iotx_sold = IMimoExchange(exchange_addr)\n            .iotxToTokenTransferOutput\n            .value(iotx_bought)(tokens_bought, deadline, recipient);\n        emit IotxPurchase(buyer, tokens_sold, iotx_bought);\n        return tokens_sold;\n    }\n\n    /**\n     * @notice Convert Tokens (token) to Tokens (token_addr).\n     * @dev User specifies maximum input && exact output.\n     * @param tokens_bought Amount of Tokens (token_addr) bought.\n     * @param max_tokens_sold Maximum Tokens (token) sold.\n     * @param max_iotx_sold Maximum IOTX purchased as intermediary.\n     * @param deadline Time after which this transaction can no longer be executed.\n     * @param token_addr The address of the token being purchased.\n     * @return Amount of Tokens (token) sold.\n     */\n    function tokenToTokenSwapOutput(\n        uint256 tokens_bought,\n        uint256 max_tokens_sold,\n        uint256 max_iotx_sold,\n        uint256 deadline,\n        address token_addr\n    ) public returns (uint256) {\n        address payable exchange_addr = factory.getExchange(token_addr);\n        return\n            tokenToTokenOutput(\n                tokens_bought,\n                max_tokens_sold,\n                max_iotx_sold,\n                deadline,\n                msg.sender,\n                msg.sender,\n                exchange_addr\n            );\n    }\n\n    /**\n     * @notice Convert Tokens (token) to Tokens (token_addr) && transfers\n     *         Tokens (token_addr) to recipient.\n     * @dev User specifies maximum input && exact output.\n     * @param tokens_bought Amount of Tokens (token_addr) bought.\n     * @param max_tokens_sold Maximum Tokens (token) sold.\n     * @param max_iotx_sold Maximum IOTX purchased as intermediary.\n     * @param deadline Time after which this transaction can no longer be executed.\n     * @param recipient The address that receives output IOTX.\n     * @param token_addr The address of the token being purchased.\n     * @return Amount of Tokens (token) sold.\n     */\n    function tokenToTokenTransferOutput(\n        uint256 tokens_bought,\n        uint256 max_tokens_sold,\n        uint256 max_iotx_sold,\n        uint256 deadline,\n        address recipient,\n        address token_addr\n    ) public returns (uint256) {\n        address payable exchange_addr = factory.getExchange(token_addr);\n        return\n            tokenToTokenOutput(\n                tokens_bought,\n                max_tokens_sold,\n                max_iotx_sold,\n                deadline,\n                msg.sender,\n                recipient,\n                exchange_addr\n            );\n    }\n\n    /**\n     * @notice Convert Tokens (token) to Tokens (exchange_addr.token).\n     * @dev Allows trades through contracts that were not deployed from the same factory.\n     * @dev User specifies exact input && minimum output.\n     * @param tokens_sold Amount of Tokens sold.\n     * @param min_tokens_bought Minimum Tokens (token_addr) purchased.\n     * @param min_iotx_bought Minimum IOTX purchased as intermediary.\n     * @param deadline Time after which this transaction can no longer be executed.\n     * @param exchange_addr The address of the exchange for the token being purchased.\n     * @return Amount of Tokens (exchange_addr.token) bought.\n     */\n    function tokenToExchangeSwapInput(\n        uint256 tokens_sold,\n        uint256 min_tokens_bought,\n        uint256 min_iotx_bought,\n        uint256 deadline,\n        address payable exchange_addr\n    ) public returns (uint256) {\n        return\n            tokenToTokenInput(\n                tokens_sold,\n                min_tokens_bought,\n                min_iotx_bought,\n                deadline,\n                msg.sender,\n                msg.sender,\n                exchange_addr\n            );\n    }\n\n    /**\n     * @notice Convert Tokens (token) to Tokens (exchange_addr.token) && transfers\n     *         Tokens (exchange_addr.token) to recipient.\n     * @dev Allows trades through contracts that were not deployed from the same factory.\n     * @dev User specifies exact input && minimum output.\n     * @param tokens_sold Amount of Tokens sold.\n     * @param min_tokens_bought Minimum Tokens (token_addr) purchased.\n     * @param min_iotx_bought Minimum IOTX purchased as intermediary.\n     * @param deadline Time after which this transaction can no longer be executed.\n     * @param recipient The address that receives output IOTX.\n     * @param exchange_addr The address of the exchange for the token being purchased.\n     * @return Amount of Tokens (exchange_addr.token) bought.\n     */\n    function tokenToExchangeTransferInput(\n        uint256 tokens_sold,\n        uint256 min_tokens_bought,\n        uint256 min_iotx_bought,\n        uint256 deadline,\n        address recipient,\n        address payable exchange_addr\n    ) public returns (uint256) {\n        require(recipient != address(this));\n        return\n            tokenToTokenInput(\n                tokens_sold,\n                min_tokens_bought,\n                min_iotx_bought,\n                deadline,\n                msg.sender,\n                recipient,\n                exchange_addr\n            );\n    }\n\n    /**\n     * @notice Convert Tokens (token) to Tokens (exchange_addr.token).\n     * @dev Allows trades through contracts that were not deployed from the same factory.\n     * @dev User specifies maximum input && exact output.\n     * @param tokens_bought Amount of Tokens (token_addr) bought.\n     * @param max_tokens_sold Maximum Tokens (token) sold.\n     * @param max_iotx_sold Maximum IOTX purchased as intermediary.\n     * @param deadline Time after which this transaction can no longer be executed.\n     * @param exchange_addr The address of the exchange for the token being purchased.\n     * @return Amount of Tokens (token) sold.\n     */\n    function tokenToExchangeSwapOutput(\n        uint256 tokens_bought,\n        uint256 max_tokens_sold,\n        uint256 max_iotx_sold,\n        uint256 deadline,\n        address payable exchange_addr\n    ) public returns (uint256) {\n        return\n            tokenToTokenOutput(\n                tokens_bought,\n                max_tokens_sold,\n                max_iotx_sold,\n                deadline,\n                msg.sender,\n                msg.sender,\n                exchange_addr\n            );\n    }\n\n    /**\n     * @notice Convert Tokens (token) to Tokens (exchange_addr.token) && transfers\n     *         Tokens (exchange_addr.token) to recipient.\n     * @dev Allows trades through contracts that were not deployed from the same factory.\n     * @dev User specifies maximum input && exact output.\n     * @param tokens_bought Amount of Tokens (token_addr) bought.\n     * @param max_tokens_sold Maximum Tokens (token) sold.\n     * @param max_iotx_sold Maximum IOTX purchased as intermediary.\n     * @param deadline Time after which this transaction can no longer be executed.\n     * @param recipient The address that receives output IOTX.\n     * @param exchange_addr The address of the exchange for the token being purchased.\n     * @return Amount of Tokens (token) sold.\n     */\n    function tokenToExchangeTransferOutput(\n        uint256 tokens_bought,\n        uint256 max_tokens_sold,\n        uint256 max_iotx_sold,\n        uint256 deadline,\n        address recipient,\n        address payable exchange_addr\n    ) public returns (uint256) {\n        require(recipient != address(this));\n        return\n            tokenToTokenOutput(\n                tokens_bought,\n                max_tokens_sold,\n                max_iotx_sold,\n                deadline,\n                msg.sender,\n                recipient,\n                exchange_addr\n            );\n    }\n\n    /***********************************|\n  |         Getter Functions          |\n  |__________________________________*/\n\n    /**\n     * @notice Public price function for IOTX to Token trades with an exact input.\n     * @param iotx_sold Amount of IOTX sold.\n     * @return Amount of Tokens that can be bought with input IOTX.\n     */\n    function getIotxToTokenInputPrice(uint256 iotx_sold)\n        public\n        view\n        returns (uint256)\n    {\n        require(iotx_sold > 0);\n        uint256 token_reserve = token.balanceOf(address(this));\n        return getInputPrice(iotx_sold, address(this).balance, token_reserve);\n    }\n\n    /**\n     * @notice Public price function for IOTX to Token trades with an exact output.\n     * @param tokens_bought Amount of Tokens bought.\n     * @return Amount of IOTX needed to buy output Tokens.\n     */\n    function getIotxToTokenOutputPrice(uint256 tokens_bought)\n        public\n        view\n        returns (uint256)\n    {\n        require(tokens_bought > 0);\n        uint256 token_reserve = token.balanceOf(address(this));\n        uint256 iotx_sold = getOutputPrice(\n            tokens_bought,\n            address(this).balance,\n            token_reserve\n        );\n        return iotx_sold;\n    }\n\n    /**\n     * @notice Public price function for Token to IOTX trades with an exact input.\n     * @param tokens_sold Amount of Tokens sold.\n     * @return Amount of IOTX that can be bought with input Tokens.\n     */\n    function getTokenToIotxInputPrice(uint256 tokens_sold)\n        public\n        view\n        returns (uint256)\n    {\n        require(tokens_sold > 0);\n        uint256 token_reserve = token.balanceOf(address(this));\n        uint256 iotx_bought = getInputPrice(\n            tokens_sold,\n            token_reserve,\n            address(this).balance\n        );\n        return iotx_bought;\n    }\n\n    /**\n     * @notice Public price function for Token to IOTX trades with an exact output.\n     * @param iotx_bought Amount of output IOTX.\n     * @return Amount of Tokens needed to buy output IOTX.\n     */\n    function getTokenToIotxOutputPrice(uint256 iotx_bought)\n        public\n        view\n        returns (uint256)\n    {\n        require(iotx_bought > 0);\n        uint256 token_reserve = token.balanceOf(address(this));\n        return\n            getOutputPrice(iotx_bought, token_reserve, address(this).balance);\n    }\n\n    /**\n     * @return Address of Token that is sold on this exchange.\n     */\n    function tokenAddress() public view returns (address) {\n        return address(token);\n    }\n\n    /**\n     * @return Address of factory that created this exchange.\n     */\n    function factoryAddress() public view returns (address) {\n        return address(factory);\n    }\n\n    /***********************************|\n  |        Liquidity Functions        |\n  |__________________________________*/\n\n    /**\n     * @notice Deposit IOTX && Tokens (token) at current ratio to mint IOS tokens.\n     * @dev min_liquidity does nothing when total IOS supply is 0.\n     * @param min_liquidity Minimum number of IOS sender will mint if total IOS supply is greater than 0.\n     * @param max_tokens Maximum number of tokens deposited. Deposits max amount if total IOS supply is 0.\n     * @param deadline Time after which this transaction can no longer be executed.\n     * @return The amount of IOS minted.\n     */\n    function addLiquidity(\n        uint256 min_liquidity,\n        uint256 max_tokens,\n        uint256 deadline\n    ) public payable returns (uint256) {\n        require(\n            deadline > block.timestamp && max_tokens > 0 && msg.value > 0,\n            \"MimoExchange#addLiquidity: INVALID_ARGUMENT\"\n        );\n        uint256 total_liquidity = _totalSupply;\n\n        if (total_liquidity > 0) {\n            require(min_liquidity > 0);\n            uint256 iotx_reserve = address(this).balance.sub(msg.value);\n            uint256 token_reserve = token.balanceOf(address(this));\n            uint256 token_amount = (msg.value.mul(token_reserve) / iotx_reserve)\n                .add(1);\n            uint256 liquidity_minted = msg.value.mul(total_liquidity) /\n                iotx_reserve;\n            require(\n                max_tokens >= token_amount && liquidity_minted >= min_liquidity\n            );\n            _balances[msg.sender] = _balances[msg.sender].add(liquidity_minted);\n            _totalSupply = total_liquidity.add(liquidity_minted);\n            require(\n                token.transferFrom(msg.sender, address(this), token_amount)\n            );\n            emit AddLiquidity(msg.sender, msg.value, token_amount);\n            emit Transfer(address(0), msg.sender, liquidity_minted);\n            return liquidity_minted;\n        } else {\n            require(\n                address(factory) != address(0) &&\n                    address(token) != address(0) &&\n                    msg.value >= 1000000000,\n                \"INVALID_VALUE\"\n            );\n            require(factory.getExchange(address(token)) == address(this));\n            uint256 token_amount = max_tokens;\n            uint256 initial_liquidity = address(this).balance;\n            _totalSupply = initial_liquidity;\n            _balances[msg.sender] = initial_liquidity;\n            require(\n                token.transferFrom(msg.sender, address(this), token_amount)\n            );\n            emit AddLiquidity(msg.sender, msg.value, token_amount);\n            emit Transfer(address(0), msg.sender, initial_liquidity);\n            return initial_liquidity;\n        }\n    }\n\n    /**\n     * @dev Burn IOS tokens to withdraw IOTX && Tokens at current ratio.\n     * @param amount Amount of IOS burned.\n     * @param min_iotx Minimum IOTX withdrawn.\n     * @param min_tokens Minimum Tokens withdrawn.\n     * @param deadline Time after which this transaction can no longer be executed.\n     * @return The amount of IOTX && Tokens withdrawn.\n     */\n    function removeLiquidity(\n        uint256 amount,\n        uint256 min_iotx,\n        uint256 min_tokens,\n        uint256 deadline\n    ) public returns (uint256, uint256) {\n        require(\n            amount > 0 &&\n                deadline > block.timestamp &&\n                min_iotx > 0 &&\n                min_tokens > 0\n        );\n        uint256 total_liquidity = _totalSupply;\n        require(total_liquidity > 0);\n        uint256 token_reserve = token.balanceOf(address(this));\n        uint256 iotx_amount = amount.mul(address(this).balance) /\n            total_liquidity;\n        uint256 token_amount = amount.mul(token_reserve) / total_liquidity;\n        require(iotx_amount >= min_iotx && token_amount >= min_tokens);\n\n        _balances[msg.sender] = _balances[msg.sender].sub(amount);\n        _totalSupply = total_liquidity.sub(amount);\n        msg.sender.transfer(iotx_amount);\n        require(token.transfer(msg.sender, token_amount));\n        emit RemoveLiquidity(msg.sender, iotx_amount, token_amount);\n        emit Transfer(msg.sender, address(0), amount);\n        return (iotx_amount, token_amount);\n    }\n}\n",
  "sourcePath": "/Users/rc7/work/src/github.com/mimoexchange/mimo-contract/contracts/MimoExchange.sol",
  "compiler": {
    "name": "solc",
    "version": "0.5.12+commit.7709ece9.Emscripten.clang"
  },
  "schemaVersion": "3.0.18",
  "updatedAt": "2020-09-11T04:09:22.501Z",
  "devdoc": {
    "methods": {
      "addLiquidity(uint256,uint256,uint256)": {
        "details": "min_liquidity does nothing when total IOS supply is 0.",
        "params": {
          "deadline": "Time after which this transaction can no longer be executed.",
          "max_tokens": "Maximum number of tokens deposited. Deposits max amount if total IOS supply is 0.",
          "min_liquidity": "Minimum number of IOS sender will mint if total IOS supply is greater than 0."
        },
        "return": "The amount of IOS minted."
      },
      "allowance(address,address)": {
        "details": "Function to check the amount of tokens that an owner allowed to a spender.",
        "params": {
          "owner": "address The address which owns the funds.",
          "spender": "address The address which will spend the funds."
        },
        "return": "A uint256 specifying the amount of tokens still available for the spender."
      },
      "approve(address,uint256)": {
        "details": "Approve the passed address to spend the specified amount of tokens on behalf of msg.sender. Beware that changing an allowance with this method brings the risk that someone may use both the old and the new allowance by unfortunate transaction ordering. One possible solution to mitigate this race condition is to first reduce the spender's allowance to 0 and set the desired value afterwards: https://github.com/ethereum/EIPs/issues/20#issuecomment-263524729",
        "params": {
          "spender": "The address which will spend the funds.",
          "value": "The amount of tokens to be spent."
        }
      },
      "balanceOf(address)": {
        "details": "Gets the balance of the specified address.",
        "params": {
          "owner": "The address to query the balance of."
        },
        "return": "A uint256 representing the amount owned by the passed address."
      },
      "decreaseAllowance(address,uint256)": {
        "details": "Decrease the amount of tokens that an owner allowed to a spender. approve should be called when _allowed[msg.sender][spender] == 0. To decrement allowed value is better to use this function to avoid 2 calls (and wait until the first transaction is mined) From MonolithDAO Token.sol Emits an Approval event.",
        "params": {
          "spender": "The address which will spend the funds.",
          "subtractedValue": "The amount of tokens to decrease the allowance by."
        }
      },
      "factoryAddress()": {
        "return": "Address of factory that created this exchange."
      },
      "getInputPrice(uint256,uint256,uint256)": {
        "details": "Pricing function for converting between IOTX && Tokens.",
        "params": {
          "input_amount": "Amount of IOTX or Tokens being sold.",
          "input_reserve": "Amount of IOTX or Tokens (input type) in exchange reserves.",
          "output_reserve": "Amount of IOTX or Tokens (output type) in exchange reserves."
        },
        "return": "Amount of IOTX or Tokens bought."
      },
      "getIotxToTokenInputPrice(uint256)": {
        "params": {
          "iotx_sold": "Amount of IOTX sold."
        },
        "return": "Amount of Tokens that can be bought with input IOTX."
      },
      "getIotxToTokenOutputPrice(uint256)": {
        "params": {
          "tokens_bought": "Amount of Tokens bought."
        },
        "return": "Amount of IOTX needed to buy output Tokens."
      },
      "getOutputPrice(uint256,uint256,uint256)": {
        "details": "Pricing function for converting between IOTX && Tokens.",
        "params": {
          "input_reserve": "Amount of IOTX or Tokens (input type) in exchange reserves.",
          "output_amount": "Amount of IOTX or Tokens being bought.",
          "output_reserve": "Amount of IOTX or Tokens (output type) in exchange reserves."
        },
        "return": "Amount of IOTX or Tokens sold."
      },
      "getTokenToIotxInputPrice(uint256)": {
        "params": {
          "tokens_sold": "Amount of Tokens sold."
        },
        "return": "Amount of IOTX that can be bought with input Tokens."
      },
      "getTokenToIotxOutputPrice(uint256)": {
        "params": {
          "iotx_bought": "Amount of output IOTX."
        },
        "return": "Amount of Tokens needed to buy output IOTX."
      },
      "increaseAllowance(address,uint256)": {
        "details": "Increase the amount of tokens that an owner allowed to a spender. approve should be called when _allowed[msg.sender][spender] == 0. To increment allowed value is better to use this function to avoid 2 calls (and wait until the first transaction is mined) From MonolithDAO Token.sol Emits an Approval event.",
        "params": {
          "addedValue": "The amount of tokens to increase the allowance by.",
          "spender": "The address which will spend the funds."
        }
      },
      "iotxToTokenSwapInput(uint256,uint256)": {
        "details": "User specifies exact input (msg.value) && minimum output.",
        "params": {
          "deadline": "Time after which this transaction can no longer be executed.",
          "min_tokens": "Minimum Tokens bought."
        },
        "return": "Amount of Tokens bought."
      },
      "iotxToTokenSwapOutput(uint256,uint256)": {
        "details": "User specifies maximum input (msg.value) && exact output.",
        "params": {
          "deadline": "Time after which this transaction can no longer be executed.",
          "tokens_bought": "Amount of tokens bought."
        },
        "return": "Amount of IOTX sold."
      },
      "iotxToTokenTransferInput(uint256,uint256,address)": {
        "details": "User specifies exact input (msg.value) && minimum output",
        "params": {
          "deadline": "Time after which this transaction can no longer be executed.",
          "min_tokens": "Minimum Tokens bought.",
          "recipient": "The address that receives output Tokens."
        },
        "return": "Amount of Tokens bought."
      },
      "iotxToTokenTransferOutput(uint256,uint256,address)": {
        "details": "User specifies maximum input (msg.value) && exact output.",
        "params": {
          "deadline": "Time after which this transaction can no longer be executed.",
          "recipient": "The address that receives output Tokens.",
          "tokens_bought": "Amount of tokens bought."
        },
        "return": "Amount of IOTX sold."
      },
      "removeLiquidity(uint256,uint256,uint256,uint256)": {
        "details": "Burn IOS tokens to withdraw IOTX && Tokens at current ratio.",
        "params": {
          "amount": "Amount of IOS burned.",
          "deadline": "Time after which this transaction can no longer be executed.",
          "min_iotx": "Minimum IOTX withdrawn.",
          "min_tokens": "Minimum Tokens withdrawn."
        },
        "return": "The amount of IOTX && Tokens withdrawn."
      },
      "setup(address)": {
        "details": "This function acts as a contract constructor which is not currently supported in contracts deployed     using create_with_code_of(). It is called once by the factory during contract creation."
      },
      "tokenAddress()": {
        "return": "Address of Token that is sold on this exchange."
      },
      "tokenToExchangeSwapInput(uint256,uint256,uint256,uint256,address)": {
        "details": "Allows trades through contracts that were not deployed from the same factory.User specifies exact input && minimum output.",
        "params": {
          "deadline": "Time after which this transaction can no longer be executed.",
          "exchange_addr": "The address of the exchange for the token being purchased.",
          "min_iotx_bought": "Minimum IOTX purchased as intermediary.",
          "min_tokens_bought": "Minimum Tokens (token_addr) purchased.",
          "tokens_sold": "Amount of Tokens sold."
        },
        "return": "Amount of Tokens (exchange_addr.token) bought."
      },
      "tokenToExchangeSwapOutput(uint256,uint256,uint256,uint256,address)": {
        "details": "Allows trades through contracts that were not deployed from the same factory.User specifies maximum input && exact output.",
        "params": {
          "deadline": "Time after which this transaction can no longer be executed.",
          "exchange_addr": "The address of the exchange for the token being purchased.",
          "max_iotx_sold": "Maximum IOTX purchased as intermediary.",
          "max_tokens_sold": "Maximum Tokens (token) sold.",
          "tokens_bought": "Amount of Tokens (token_addr) bought."
        },
        "return": "Amount of Tokens (token) sold."
      },
      "tokenToExchangeTransferInput(uint256,uint256,uint256,uint256,address,address)": {
        "details": "Allows trades through contracts that were not deployed from the same factory.User specifies exact input && minimum output.",
        "params": {
          "deadline": "Time after which this transaction can no longer be executed.",
          "exchange_addr": "The address of the exchange for the token being purchased.",
          "min_iotx_bought": "Minimum IOTX purchased as intermediary.",
          "min_tokens_bought": "Minimum Tokens (token_addr) purchased.",
          "recipient": "The address that receives output IOTX.",
          "tokens_sold": "Amount of Tokens sold."
        },
        "return": "Amount of Tokens (exchange_addr.token) bought."
      },
      "tokenToExchangeTransferOutput(uint256,uint256,uint256,uint256,address,address)": {
        "details": "Allows trades through contracts that were not deployed from the same factory.User specifies maximum input && exact output.",
        "params": {
          "deadline": "Time after which this transaction can no longer be executed.",
          "exchange_addr": "The address of the exchange for the token being purchased.",
          "max_iotx_sold": "Maximum IOTX purchased as intermediary.",
          "max_tokens_sold": "Maximum Tokens (token) sold.",
          "recipient": "The address that receives output IOTX.",
          "tokens_bought": "Amount of Tokens (token_addr) bought."
        },
        "return": "Amount of Tokens (token) sold."
      },
      "tokenToIotxSwapInput(uint256,uint256,uint256)": {
        "details": "User specifies exact input && minimum output.",
        "params": {
          "deadline": "Time after which this transaction can no longer be executed.",
          "min_iotx": "Minimum IOTX purchased.",
          "tokens_sold": "Amount of Tokens sold."
        },
        "return": "Amount of IOTX bought."
      },
      "tokenToIotxSwapOutput(uint256,uint256,uint256)": {
        "details": "User specifies maximum input && exact output.",
        "params": {
          "deadline": "Time after which this transaction can no longer be executed.",
          "iotx_bought": "Amount of IOTX purchased.",
          "max_tokens": "Maximum Tokens sold."
        },
        "return": "Amount of Tokens sold."
      },
      "tokenToIotxTransferInput(uint256,uint256,uint256,address)": {
        "details": "User specifies exact input && minimum output.",
        "params": {
          "deadline": "Time after which this transaction can no longer be executed.",
          "min_iotx": "Minimum IOTX purchased.",
          "recipient": "The address that receives output IOTX.",
          "tokens_sold": "Amount of Tokens sold."
        },
        "return": "Amount of IOTX bought."
      },
      "tokenToIotxTransferOutput(uint256,uint256,uint256,address)": {
        "details": "User specifies maximum input && exact output.",
        "params": {
          "deadline": "Time after which this transaction can no longer be executed.",
          "iotx_bought": "Amount of IOTX purchased.",
          "max_tokens": "Maximum Tokens sold.",
          "recipient": "The address that receives output IOTX."
        },
        "return": "Amount of Tokens sold."
      },
      "tokenToTokenSwapInput(uint256,uint256,uint256,uint256,address)": {
        "details": "User specifies exact input && minimum output.",
        "params": {
          "deadline": "Time after which this transaction can no longer be executed.",
          "min_iotx_bought": "Minimum IOTX purchased as intermediary.",
          "min_tokens_bought": "Minimum Tokens (token_addr) purchased.",
          "token_addr": "The address of the token being purchased.",
          "tokens_sold": "Amount of Tokens sold."
        },
        "return": "Amount of Tokens (token_addr) bought."
      },
      "tokenToTokenSwapOutput(uint256,uint256,uint256,uint256,address)": {
        "details": "User specifies maximum input && exact output.",
        "params": {
          "deadline": "Time after which this transaction can no longer be executed.",
          "max_iotx_sold": "Maximum IOTX purchased as intermediary.",
          "max_tokens_sold": "Maximum Tokens (token) sold.",
          "token_addr": "The address of the token being purchased.",
          "tokens_bought": "Amount of Tokens (token_addr) bought."
        },
        "return": "Amount of Tokens (token) sold."
      },
      "tokenToTokenTransferInput(uint256,uint256,uint256,uint256,address,address)": {
        "details": "User specifies exact input && minimum output.",
        "params": {
          "deadline": "Time after which this transaction can no longer be executed.",
          "min_iotx_bought": "Minimum IOTX purchased as intermediary.",
          "min_tokens_bought": "Minimum Tokens (token_addr) purchased.",
          "recipient": "The address that receives output IOTX.",
          "token_addr": "The address of the token being purchased.",
          "tokens_sold": "Amount of Tokens sold."
        },
        "return": "Amount of Tokens (token_addr) bought."
      },
      "tokenToTokenTransferOutput(uint256,uint256,uint256,uint256,address,address)": {
        "details": "User specifies maximum input && exact output.",
        "params": {
          "deadline": "Time after which this transaction can no longer be executed.",
          "max_iotx_sold": "Maximum IOTX purchased as intermediary.",
          "max_tokens_sold": "Maximum Tokens (token) sold.",
          "recipient": "The address that receives output IOTX.",
          "token_addr": "The address of the token being purchased.",
          "tokens_bought": "Amount of Tokens (token_addr) bought."
        },
        "return": "Amount of Tokens (token) sold."
      },
      "totalSupply()": {
        "details": "Total number of tokens in existence"
      },
      "transfer(address,uint256)": {
        "details": "Transfer token to a specified address",
        "params": {
          "to": "The address to transfer to.",
          "value": "The amount to be transferred."
        }
      },
      "transferFrom(address,address,uint256)": {
        "details": "Transfer tokens from one address to another. Note that while this function emits an Approval event, this is not required as per the specification, and other compliant implementations may not emit the event.",
        "params": {
          "from": "address The address which you want to send tokens from",
          "to": "address The address which you want to transfer to",
          "value": "uint256 the amount of tokens to be transferred"
        }
      }
    }
  },
  "userdoc": {
    "methods": {
      "addLiquidity(uint256,uint256,uint256)": {
        "notice": "Deposit IOTX && Tokens (token) at current ratio to mint IOS tokens."
      },
      "getIotxToTokenInputPrice(uint256)": {
        "notice": "Public price function for IOTX to Token trades with an exact input."
      },
      "getIotxToTokenOutputPrice(uint256)": {
        "notice": "Public price function for IOTX to Token trades with an exact output."
      },
      "getTokenToIotxInputPrice(uint256)": {
        "notice": "Public price function for Token to IOTX trades with an exact input."
      },
      "getTokenToIotxOutputPrice(uint256)": {
        "notice": "Public price function for Token to IOTX trades with an exact output."
      },
      "iotxToTokenSwapInput(uint256,uint256)": {
        "notice": "Convert IOTX to Tokens."
      },
      "iotxToTokenSwapOutput(uint256,uint256)": {
        "notice": "Convert IOTX to Tokens."
      },
      "iotxToTokenTransferInput(uint256,uint256,address)": {
        "notice": "Convert IOTX to Tokens && transfers Tokens to recipient."
      },
      "iotxToTokenTransferOutput(uint256,uint256,address)": {
        "notice": "Convert IOTX to Tokens && transfers Tokens to recipient."
      },
      "tokenToExchangeSwapInput(uint256,uint256,uint256,uint256,address)": {
        "notice": "Convert Tokens (token) to Tokens (exchange_addr.token)."
      },
      "tokenToExchangeSwapOutput(uint256,uint256,uint256,uint256,address)": {
        "notice": "Convert Tokens (token) to Tokens (exchange_addr.token)."
      },
      "tokenToExchangeTransferInput(uint256,uint256,uint256,uint256,address,address)": {
        "notice": "Convert Tokens (token) to Tokens (exchange_addr.token) && transfers        Tokens (exchange_addr.token) to recipient."
      },
      "tokenToExchangeTransferOutput(uint256,uint256,uint256,uint256,address,address)": {
        "notice": "Convert Tokens (token) to Tokens (exchange_addr.token) && transfers        Tokens (exchange_addr.token) to recipient."
      },
      "tokenToIotxSwapInput(uint256,uint256,uint256)": {
        "notice": "Convert Tokens to IOTX."
      },
      "tokenToIotxSwapOutput(uint256,uint256,uint256)": {
        "notice": "Convert Tokens to IOTX."
      },
      "tokenToIotxTransferInput(uint256,uint256,uint256,address)": {
        "notice": "Convert Tokens to IOTX && transfers IOTX to recipient."
      },
      "tokenToIotxTransferOutput(uint256,uint256,uint256,address)": {
        "notice": "Convert Tokens to IOTX && transfers IOTX to recipient."
      },
      "tokenToTokenSwapInput(uint256,uint256,uint256,uint256,address)": {
        "notice": "Convert Tokens (token) to Tokens (token_addr)."
      },
      "tokenToTokenSwapOutput(uint256,uint256,uint256,uint256,address)": {
        "notice": "Convert Tokens (token) to Tokens (token_addr)."
      },
      "tokenToTokenTransferInput(uint256,uint256,uint256,uint256,address,address)": {
        "notice": "Convert Tokens (token) to Tokens (token_addr) && transfers        Tokens (token_addr) to recipient."
      },
      "tokenToTokenTransferOutput(uint256,uint256,uint256,uint256,address,address)": {
        "notice": "Convert Tokens (token) to Tokens (token_addr) && transfers        Tokens (token_addr) to recipient."
      }
    }
  }
}